{
  "_format": "hh-sol-artifact-1",
  "contractName": "ERC721",
  "sourceName": "contracts/ERC721.sol",
  "abi": [
    {
      "inputs": [
        {
          "internalType": "address",
          "name": "to",
          "type": "address"
        },
        {
          "internalType": "uint256",
          "name": "tokenId",
          "type": "uint256"
        }
      ],
      "name": "approveNFT",
      "outputs": [],
      "stateMutability": "nonpayable",
      "type": "function"
    },
    {
      "inputs": [
        {
          "internalType": "address",
          "name": "owner",
          "type": "address"
        }
      ],
      "name": "balanceOfNFT",
      "outputs": [
        {
          "internalType": "uint256",
          "name": "",
          "type": "uint256"
        }
      ],
      "stateMutability": "view",
      "type": "function"
    },
    {
      "inputs": [
        {
          "internalType": "uint256",
          "name": "tokenId",
          "type": "uint256"
        }
      ],
      "name": "getApprovedNFT",
      "outputs": [
        {
          "internalType": "address",
          "name": "operator",
          "type": "address"
        }
      ],
      "stateMutability": "view",
      "type": "function"
    },
    {
      "inputs": [
        {
          "internalType": "address",
          "name": "_owner",
          "type": "address"
        },
        {
          "internalType": "address",
          "name": "_operator",
          "type": "address"
        }
      ],
      "name": "isApprovedForAll",
      "outputs": [
        {
          "internalType": "bool",
          "name": "operatorApprove",
          "type": "bool"
        }
      ],
      "stateMutability": "view",
      "type": "function"
    },
    {
      "inputs": [],
      "name": "nameNFT",
      "outputs": [
        {
          "internalType": "string",
          "name": "",
          "type": "string"
        }
      ],
      "stateMutability": "view",
      "type": "function"
    },
    {
      "inputs": [],
      "name": "nftTotalSupply",
      "outputs": [
        {
          "internalType": "uint256",
          "name": "",
          "type": "uint256"
        }
      ],
      "stateMutability": "view",
      "type": "function"
    },
    {
      "inputs": [
        {
          "internalType": "uint256",
          "name": "tokenId",
          "type": "uint256"
        }
      ],
      "name": "ownerOf",
      "outputs": [
        {
          "internalType": "address",
          "name": "",
          "type": "address"
        }
      ],
      "stateMutability": "view",
      "type": "function"
    },
    {
      "inputs": [
        {
          "internalType": "address",
          "name": "_owner",
          "type": "address"
        },
        {
          "internalType": "address",
          "name": "_operator",
          "type": "address"
        },
        {
          "internalType": "bool",
          "name": "_approved",
          "type": "bool"
        }
      ],
      "name": "setApprovalForAll",
      "outputs": [],
      "stateMutability": "nonpayable",
      "type": "function"
    },
    {
      "inputs": [],
      "name": "symbolNFT",
      "outputs": [
        {
          "internalType": "string",
          "name": "",
          "type": "string"
        }
      ],
      "stateMutability": "view",
      "type": "function"
    },
    {
      "inputs": [
        {
          "internalType": "uint256",
          "name": "tokenId",
          "type": "uint256"
        }
      ],
      "name": "tokenURI",
      "outputs": [
        {
          "internalType": "string",
          "name": "",
          "type": "string"
        }
      ],
      "stateMutability": "view",
      "type": "function"
    },
    {
      "inputs": [
        {
          "internalType": "address",
          "name": "from",
          "type": "address"
        },
        {
          "internalType": "address",
          "name": "to",
          "type": "address"
        },
        {
          "internalType": "uint256",
          "name": "tokenId",
          "type": "uint256"
        }
      ],
      "name": "transferFromNFT",
      "outputs": [],
      "stateMutability": "nonpayable",
      "type": "function"
    }
  ],
  "bytecode": "0x60806040526040518060400160405280600981526020017f5469636b65744e465400000000000000000000000000000000000000000000008152506000908051906020019062000051929190620000b4565b506040518060400160405280600381526020017f54544e0000000000000000000000000000000000000000000000000000000000815250600190805190602001906200009f929190620000b4565b50348015620000ad57600080fd5b50620001c9565b828054620000c29062000164565b90600052602060002090601f016020900481019282620000e6576000855562000132565b82601f106200010157805160ff191683800117855562000132565b8280016001018555821562000132579182015b828111156200013157825182559160200191906001019062000114565b5b50905062000141919062000145565b5090565b5b808211156200016057600081600090555060010162000146565b5090565b600060028204905060018216806200017d57607f821691505b602082108114156200019457620001936200019a565b5b50919050565b7f4e487b7100000000000000000000000000000000000000000000000000000000600052602260045260246000fd5b61180f80620001d96000396000f3fe608060405234801561001057600080fd5b50600436106100a95760003560e01c80636352211e116100715780636352211e146101525780639600dd8314610182578063c87b56dd1461019e578063c9ba55ff146101ce578063e985e9c5146101ec578063f5b100ea1461021c576100a9565b80630803a3e3146100ae5780630bb23784146100cc578063129763c2146100ea57806327ef549514610106578063367605ca14610136575b600080fd5b6100b661024c565b6040516100c391906111d4565b60405180910390f35b6100d46102de565b6040516100e191906112b6565b60405180910390f35b61010460048036038101906100ff9190610f51565b6102e4565b005b610120600480360381019061011b9190610fe4565b61045f565b60405161012d919061119e565b60405180910390f35b610150600480360381019061014b9190610efe565b61049c565b005b61016c60048036038101906101679190610fe4565b6105e1565b604051610179919061119e565b60405180910390f35b61019c60048036038101906101979190610fa4565b6106c0565b005b6101b860048036038101906101b39190610fe4565b610812565b6040516101c591906111d4565b60405180910390f35b6101d6610914565b6040516101e391906111d4565b60405180910390f35b61020660048036038101906102019190610ebe565b6109a6565b60405161021391906111b9565b60405180910390f35b61023660048036038101906102319190610e91565b610a3a565b60405161024391906112b6565b60405180910390f35b60606001805461025b9061142e565b80601f01602080910402602001604051908101604052809291908181526020018280546102879061142e565b80156102d45780601f106102a9576101008083540402835291602001916102d4565b820191906000526020600020905b8154815290600101906020018083116102b757829003601f168201915b5050505050905090565b60035481565b600073ffffffffffffffffffffffffffffffffffffffff168373ffffffffffffffffffffffffffffffffffffffff161415801561034e5750600073ffffffffffffffffffffffffffffffffffffffff168273ffffffffffffffffffffffffffffffffffffffff1614155b801561035b575060008114155b61036457600080fd5b61036e3382610af2565b6103ad576040517f08c379a00000000000000000000000000000000000000000000000000000000081526004016103a490611296565b60405180910390fd5b8173ffffffffffffffffffffffffffffffffffffffff166006600083815260200190815260200160002060009054906101000a900473ffffffffffffffffffffffffffffffffffffffff1673ffffffffffffffffffffffffffffffffffffffff161461041857600080fd5b8173ffffffffffffffffffffffffffffffffffffffff166006600083815260200190815260200160002060009054906101000a9050505061045a838383610bce565b505050565b60006006600083815260200190815260200160002060009054906101000a900473ffffffffffffffffffffffffffffffffffffffff169050919050565b600073ffffffffffffffffffffffffffffffffffffffff168373ffffffffffffffffffffffffffffffffffffffff16141580156105065750600073ffffffffffffffffffffffffffffffffffffffff168273ffffffffffffffffffffffffffffffffffffffff1614155b61050f57600080fd5b8173ffffffffffffffffffffffffffffffffffffffff168373ffffffffffffffffffffffffffffffffffffffff16141561054857600080fd5b80600760008573ffffffffffffffffffffffffffffffffffffffff1673ffffffffffffffffffffffffffffffffffffffff16815260200190815260200160002060008473ffffffffffffffffffffffffffffffffffffffff1673ffffffffffffffffffffffffffffffffffffffff16815260200190815260200160002060006101000a81548160ff021916908315150217905550505050565b60008073ffffffffffffffffffffffffffffffffffffffff166004600084815260200190815260200160002060009054906101000a900473ffffffffffffffffffffffffffffffffffffffff1673ffffffffffffffffffffffffffffffffffffffff161415610685576040517f08c379a000000000000000000000000000000000000000000000000000000000815260040161067c90611236565b60405180910390fd5b6004600083815260200190815260200160002060009054906101000a900473ffffffffffffffffffffffffffffffffffffffff169050919050565b60006106cb826105e1565b90508073ffffffffffffffffffffffffffffffffffffffff168373ffffffffffffffffffffffffffffffffffffffff16141561073c576040517f08c379a000000000000000000000000000000000000000000000000000000000815260040161073390611276565b60405180910390fd5b8073ffffffffffffffffffffffffffffffffffffffff163373ffffffffffffffffffffffffffffffffffffffff16148061077c575061077b81336109a6565b5b6107bb576040517f08c379a00000000000000000000000000000000000000000000000000000000081526004016107b2906111f6565b60405180910390fd5b826006600084815260200190815260200160002060006101000a81548173ffffffffffffffffffffffffffffffffffffffff021916908373ffffffffffffffffffffffffffffffffffffffff160217905550505050565b6060600073ffffffffffffffffffffffffffffffffffffffff166004600084815260200190815260200160002060009054906101000a900473ffffffffffffffffffffffffffffffffffffffff1673ffffffffffffffffffffffffffffffffffffffff1614156108b7576040517f08c379a00000000000000000000000000000000000000000000000000000000081526004016108ae90611216565b60405180910390fd5b60006108c1610cd1565b905060008151116108e1576040518060200160405280600081525061090c565b806108eb84610cf1565b6040516020016108fc92919061117a565b6040516020818303038152906040525b915050919050565b6060600080546109239061142e565b80601f016020809104026020016040519081016040528092919081815260200182805461094f9061142e565b801561099c5780601f106109715761010080835404028352916020019161099c565b820191906000526020600020905b81548152906001019060200180831161097f57829003601f168201915b5050505050905090565b6000600760008473ffffffffffffffffffffffffffffffffffffffff1673ffffffffffffffffffffffffffffffffffffffff16815260200190815260200160002060008373ffffffffffffffffffffffffffffffffffffffff1673ffffffffffffffffffffffffffffffffffffffff16815260200190815260200160002060009054906101000a900460ff16905092915050565b60008073ffffffffffffffffffffffffffffffffffffffff168273ffffffffffffffffffffffffffffffffffffffff161415610aab576040517f08c379a0000000000000000000000000000000000000000000000000000000008152600401610aa290611256565b60405180910390fd5b600560008373ffffffffffffffffffffffffffffffffffffffff1673ffffffffffffffffffffffffffffffffffffffff168152602001908152602001600020549050919050565b60008073ffffffffffffffffffffffffffffffffffffffff168373ffffffffffffffffffffffffffffffffffffffff1614158015610b31575060008214155b610b3a57600080fd5b6000610b45836105e1565b90508373ffffffffffffffffffffffffffffffffffffffff168173ffffffffffffffffffffffffffffffffffffffff161480610bb457508373ffffffffffffffffffffffffffffffffffffffff16610b9c8461045f565b73ffffffffffffffffffffffffffffffffffffffff16145b80610bc55750610bc481856109a6565b5b91505092915050565b80600560008573ffffffffffffffffffffffffffffffffffffffff1673ffffffffffffffffffffffffffffffffffffffff1681526020019081526020016000206000828254610c1d919061137f565b9250508190555080600560008473ffffffffffffffffffffffffffffffffffffffff1673ffffffffffffffffffffffffffffffffffffffff1681526020019081526020016000206000828254610c7391906112f8565b92505081905550816004600083815260200190815260200160002060006101000a81548173ffffffffffffffffffffffffffffffffffffffff021916908373ffffffffffffffffffffffffffffffffffffffff160217905550505050565b606060405180608001604052806051815260200161178960519139905090565b60606000821415610d39576040518060400160405280600181526020017f30000000000000000000000000000000000000000000000000000000000000008152509050610e4d565b600082905060005b60008214610d6b578080610d5490611460565b915050600a82610d64919061134e565b9150610d41565b60008167ffffffffffffffff811115610d8757610d86611596565b5b6040519080825280601f01601f191660200182016040528015610db95781602001600182028036833780820191505090505b5090505b60008514610e4657600182610dd2919061137f565b9150600a85610de191906114a9565b6030610ded91906112f8565b60f81b818381518110610e0357610e02611567565b5b60200101907effffffffffffffffffffffffffffffffffffffffffffffffffffffffffffff1916908160001a905350600a85610e3f919061134e565b9450610dbd565b8093505050505b919050565b600081359050610e6181611743565b92915050565b600081359050610e768161175a565b92915050565b600081359050610e8b81611771565b92915050565b600060208284031215610ea757610ea66115c5565b5b6000610eb584828501610e52565b91505092915050565b60008060408385031215610ed557610ed46115c5565b5b6000610ee385828601610e52565b9250506020610ef485828601610e52565b9150509250929050565b600080600060608486031215610f1757610f166115c5565b5b6000610f2586828701610e52565b9350506020610f3686828701610e52565b9250506040610f4786828701610e67565b9150509250925092565b600080600060608486031215610f6a57610f696115c5565b5b6000610f7886828701610e52565b9350506020610f8986828701610e52565b9250506040610f9a86828701610e7c565b9150509250925092565b60008060408385031215610fbb57610fba6115c5565b5b6000610fc985828601610e52565b9250506020610fda85828601610e7c565b9150509250929050565b600060208284031215610ffa57610ff96115c5565b5b600061100884828501610e7c565b91505092915050565b61101a816113b3565b82525050565b611029816113c5565b82525050565b600061103a826112d1565b61104481856112dc565b93506110548185602086016113fb565b61105d816115ca565b840191505092915050565b6000611073826112d1565b61107d81856112ed565b935061108d8185602086016113fb565b80840191505092915050565b60006110a66030836112dc565b91506110b1826115db565b604082019050919050565b60006110c9601f836112dc565b91506110d48261162a565b602082019050919050565b60006110ec601a836112dc565b91506110f782611653565b602082019050919050565b600061110f6022836112dc565b915061111a8261167c565b604082019050919050565b60006111326019836112dc565b915061113d826116cb565b602082019050919050565b60006111556029836112dc565b9150611160826116f4565b604082019050919050565b611174816113f1565b82525050565b60006111868285611068565b91506111928284611068565b91508190509392505050565b60006020820190506111b36000830184611011565b92915050565b60006020820190506111ce6000830184611020565b92915050565b600060208201905081810360008301526111ee818461102f565b905092915050565b6000602082019050818103600083015261120f81611099565b9050919050565b6000602082019050818103600083015261122f816110bc565b9050919050565b6000602082019050818103600083015261124f816110df565b9050919050565b6000602082019050818103600083015261126f81611102565b9050919050565b6000602082019050818103600083015261128f81611125565b9050919050565b600060208201905081810360008301526112af81611148565b9050919050565b60006020820190506112cb600083018461116b565b92915050565b600081519050919050565b600082825260208201905092915050565b600081905092915050565b6000611303826113f1565b915061130e836113f1565b9250827fffffffffffffffffffffffffffffffffffffffffffffffffffffffffffffffff03821115611343576113426114da565b5b828201905092915050565b6000611359826113f1565b9150611364836113f1565b92508261137457611373611509565b5b828204905092915050565b600061138a826113f1565b9150611395836113f1565b9250828210156113a8576113a76114da565b5b828203905092915050565b60006113be826113d1565b9050919050565b60008115159050919050565b600073ffffffffffffffffffffffffffffffffffffffff82169050919050565b6000819050919050565b60005b838110156114195780820151818401526020810190506113fe565b83811115611428576000848401525b50505050565b6000600282049050600182168061144657607f821691505b6020821081141561145a57611459611538565b5b50919050565b600061146b826113f1565b91507fffffffffffffffffffffffffffffffffffffffffffffffffffffffffffffffff82141561149e5761149d6114da565b5b600182019050919050565b60006114b4826113f1565b91506114bf836113f1565b9250826114cf576114ce611509565b5b828206905092915050565b7f4e487b7100000000000000000000000000000000000000000000000000000000600052601160045260246000fd5b7f4e487b7100000000000000000000000000000000000000000000000000000000600052601260045260246000fd5b7f4e487b7100000000000000000000000000000000000000000000000000000000600052602260045260246000fd5b7f4e487b7100000000000000000000000000000000000000000000000000000000600052603260045260246000fd5b7f4e487b7100000000000000000000000000000000000000000000000000000000600052604160045260246000fd5b600080fd5b6000601f19601f8301169050919050565b7f617070726f76652063616c6c6572206973206e6f74206f776e6572206e6f722060008201527f617070726f76656420666f7220616c6c00000000000000000000000000000000602082015250565b7f55524920717565727920666f72206e6f6e6578697374656e7420746f6b656e00600082015250565b7f5468697320746f6b656e20646f6e742068617665206f776e6572000000000000600082015250565b7f62616c616e636520717565727920666f7220746865207a65726f20616464726560008201527f7373000000000000000000000000000000000000000000000000000000000000602082015250565b7f617070726f76616c20746f2063757272656e74206f776e657200000000000000600082015250565b7f7472616e736665722063616c6c6572206973206e6f74206f776e6572206e6f7260008201527f20617070726f7665640000000000000000000000000000000000000000000000602082015250565b61174c816113b3565b811461175757600080fd5b50565b611763816113c5565b811461176e57600080fd5b50565b61177a816113f1565b811461178557600080fd5b5056fe68747470733a2f2f676174657761792e70696e6174612e636c6f75642f697066732f516d6542796b716441366632534d794474356e6e6b58686159725150764e55366f6a4d397a5372383176655246652fa2646970667358221220917bc0a1708b16583dc524e5e5bc6027fd8b0ed341df97047d154ed3836d525964736f6c63430008070033",
  "linkReferences": {},
  "deployedLinkReferences": {}
}