{
  "_format": "hh-sol-artifact-1",
  "contractName": "ERC20",
  "sourceName": "contracts/ERC20.sol",
  "abi": [
    {
      "inputs": [
        {
          "internalType": "address",
          "name": "_owner",
          "type": "address"
        },
        {
          "internalType": "address",
          "name": "_spender",
          "type": "address"
        }
      ],
      "name": "allowance",
      "outputs": [
        {
          "internalType": "uint256",
          "name": "",
          "type": "uint256"
        }
      ],
      "stateMutability": "view",
      "type": "function"
    },
    {
      "inputs": [
        {
          "internalType": "address",
          "name": "_owner",
          "type": "address"
        },
        {
          "internalType": "address",
          "name": "_spender",
          "type": "address"
        },
        {
          "internalType": "uint256",
          "name": "_amount",
          "type": "uint256"
        }
      ],
      "name": "approve",
      "outputs": [],
      "stateMutability": "nonpayable",
      "type": "function"
    },
    {
      "inputs": [
        {
          "internalType": "address",
          "name": "_account",
          "type": "address"
        }
      ],
      "name": "balanceOfTokens",
      "outputs": [
        {
          "internalType": "uint256",
          "name": "",
          "type": "uint256"
        }
      ],
      "stateMutability": "view",
      "type": "function"
    },
    {
      "inputs": [],
      "name": "decimals",
      "outputs": [
        {
          "internalType": "uint8",
          "name": "",
          "type": "uint8"
        }
      ],
      "stateMutability": "pure",
      "type": "function"
    },
    {
      "inputs": [],
      "name": "name",
      "outputs": [
        {
          "internalType": "string",
          "name": "",
          "type": "string"
        }
      ],
      "stateMutability": "pure",
      "type": "function"
    },
    {
      "inputs": [],
      "name": "symbol",
      "outputs": [
        {
          "internalType": "string",
          "name": "",
          "type": "string"
        }
      ],
      "stateMutability": "pure",
      "type": "function"
    },
    {
      "inputs": [],
      "name": "totalSupply",
      "outputs": [
        {
          "internalType": "uint256",
          "name": "",
          "type": "uint256"
        }
      ],
      "stateMutability": "view",
      "type": "function"
    },
    {
      "inputs": [
        {
          "internalType": "address",
          "name": "_to",
          "type": "address"
        },
        {
          "internalType": "uint256",
          "name": "_amount",
          "type": "uint256"
        }
      ],
      "name": "transfer",
      "outputs": [],
      "stateMutability": "nonpayable",
      "type": "function"
    },
    {
      "inputs": [
        {
          "internalType": "address",
          "name": "_from",
          "type": "address"
        },
        {
          "internalType": "address",
          "name": "_to",
          "type": "address"
        },
        {
          "internalType": "uint256",
          "name": "_amount",
          "type": "uint256"
        }
      ],
      "name": "transferFrom",
      "outputs": [],
      "stateMutability": "nonpayable",
      "type": "function"
    }
  ],
  "bytecode": "0x608060405234801561001057600080fd5b50610ead806100206000396000f3fe608060405234801561001057600080fd5b50600436106100935760003560e01c8063313ce56711610066578063313ce5671461012057806395d89b411461013e578063a9059cbb1461015c578063dd62ed3e14610178578063e1f21c67146101a857610093565b806306fdde031461009857806318160ddd146100b657806323b872dd146100d45780632ff57da8146100f0575b600080fd5b6100a06101c4565b6040516100ad9190610b66565b60405180910390f35b6100be610201565b6040516100cb9190610c08565b60405180910390f35b6100ee60048036038101906100e991906109f0565b61020b565b005b61010a60048036038101906101059190610983565b61021b565b6040516101179190610c08565b60405180910390f35b610128610263565b6040516101359190610c23565b60405180910390f35b61014661026c565b6040516101539190610b66565b60405180910390f35b61017660048036038101906101719190610a43565b6102a9565b005b610192600480360381019061018d91906109b0565b6102be565b60405161019f9190610c08565b60405180910390f35b6101c260048036038101906101bd91906109f0565b610424565b005b60606040518060400160405280600b81526020017f4c6f7474657279436f696e000000000000000000000000000000000000000000815250905090565b6000600254905090565b61021683838361061d565b505050565b60008060008373ffffffffffffffffffffffffffffffffffffffff1673ffffffffffffffffffffffffffffffffffffffff168152602001908152602001600020549050919050565b60006008905090565b60606040518060400160405280600381526020017f4c54430000000000000000000000000000000000000000000000000000000000815250905090565b60003390506102b981848461061d565b505050565b60008073ffffffffffffffffffffffffffffffffffffffff168373ffffffffffffffffffffffffffffffffffffffff16141561032f576040517f08c379a000000000000000000000000000000000000000000000000000000000815260040161032690610b88565b60405180910390fd5b600073ffffffffffffffffffffffffffffffffffffffff168273ffffffffffffffffffffffffffffffffffffffff16141561039f576040517f08c379a000000000000000000000000000000000000000000000000000000000815260040161039690610ba8565b60405180910390fd5b600160008473ffffffffffffffffffffffffffffffffffffffff1673ffffffffffffffffffffffffffffffffffffffff16815260200190815260200160002060008373ffffffffffffffffffffffffffffffffffffffff1673ffffffffffffffffffffffffffffffffffffffff16815260200190815260200160002054905092915050565b600073ffffffffffffffffffffffffffffffffffffffff168373ffffffffffffffffffffffffffffffffffffffff161415610494576040517f08c379a000000000000000000000000000000000000000000000000000000000815260040161048b90610b88565b60405180910390fd5b600073ffffffffffffffffffffffffffffffffffffffff168273ffffffffffffffffffffffffffffffffffffffff161415610504576040517f08c379a00000000000000000000000000000000000000000000000000000000081526004016104fb90610ba8565b60405180910390fd5b806000808573ffffffffffffffffffffffffffffffffffffffff1673ffffffffffffffffffffffffffffffffffffffff168152602001908152602001600020541015610585576040517f08c379a000000000000000000000000000000000000000000000000000000000815260040161057c90610be8565b60405180910390fd5b80600160008573ffffffffffffffffffffffffffffffffffffffff1673ffffffffffffffffffffffffffffffffffffffff16815260200190815260200160002060008473ffffffffffffffffffffffffffffffffffffffff1673ffffffffffffffffffffffffffffffffffffffff16815260200190815260200160002060008282546106119190610c5a565b92505081905550505050565b600073ffffffffffffffffffffffffffffffffffffffff168373ffffffffffffffffffffffffffffffffffffffff16141561068d576040517f08c379a000000000000000000000000000000000000000000000000000000000815260040161068490610b88565b60405180910390fd5b600073ffffffffffffffffffffffffffffffffffffffff168273ffffffffffffffffffffffffffffffffffffffff1614156106fd576040517f08c379a00000000000000000000000000000000000000000000000000000000081526004016106f490610ba8565b60405180910390fd5b80600160008573ffffffffffffffffffffffffffffffffffffffff1673ffffffffffffffffffffffffffffffffffffffff16815260200190815260200160002060008473ffffffffffffffffffffffffffffffffffffffff1673ffffffffffffffffffffffffffffffffffffffff16815260200190815260200160002054101561078657600080fd5b6107918383836108c1565b806000808573ffffffffffffffffffffffffffffffffffffffff1673ffffffffffffffffffffffffffffffffffffffff168152602001908152602001600020541015610812576040517f08c379a000000000000000000000000000000000000000000000000000000000815260040161080990610bc8565b60405180910390fd5b806000808573ffffffffffffffffffffffffffffffffffffffff1673ffffffffffffffffffffffffffffffffffffffff16815260200190815260200160002060008282546108609190610cb0565b92505081905550806000808473ffffffffffffffffffffffffffffffffffffffff1673ffffffffffffffffffffffffffffffffffffffff16815260200190815260200160002060008282546108b59190610c5a565b92505081905550505050565b80600160008573ffffffffffffffffffffffffffffffffffffffff1673ffffffffffffffffffffffffffffffffffffffff16815260200190815260200160002060008473ffffffffffffffffffffffffffffffffffffffff1673ffffffffffffffffffffffffffffffffffffffff168152602001908152602001600020600082825461094d9190610cb0565b92505081905550505050565b60008135905061096881610e49565b92915050565b60008135905061097d81610e60565b92915050565b60006020828403121561099957610998610d8f565b5b60006109a784828501610959565b91505092915050565b600080604083850312156109c7576109c6610d8f565b5b60006109d585828601610959565b92505060206109e685828601610959565b9150509250929050565b600080600060608486031215610a0957610a08610d8f565b5b6000610a1786828701610959565b9350506020610a2886828701610959565b9250506040610a398682870161096e565b9150509250925092565b60008060408385031215610a5a57610a59610d8f565b5b6000610a6885828601610959565b9250506020610a798582860161096e565b9150509250929050565b6000610a8e82610c3e565b610a988185610c49565b9350610aa8818560208601610d2d565b610ab181610d94565b840191505092915050565b6000610ac9601e83610c49565b9150610ad482610da5565b602082019050919050565b6000610aec601c83610c49565b9150610af782610dce565b602082019050919050565b6000610b0f601f83610c49565b9150610b1a82610df7565b602082019050919050565b6000610b32601183610c49565b9150610b3d82610e20565b602082019050919050565b610b5181610d16565b82525050565b610b6081610d20565b82525050565b60006020820190508181036000830152610b808184610a83565b905092915050565b60006020820190508181036000830152610ba181610abc565b9050919050565b60006020820190508181036000830152610bc181610adf565b9050919050565b60006020820190508181036000830152610be181610b02565b9050919050565b60006020820190508181036000830152610c0181610b25565b9050919050565b6000602082019050610c1d6000830184610b48565b92915050565b6000602082019050610c386000830184610b57565b92915050565b600081519050919050565b600082825260208201905092915050565b6000610c6582610d16565b9150610c7083610d16565b9250827fffffffffffffffffffffffffffffffffffffffffffffffffffffffffffffffff03821115610ca557610ca4610d60565b5b828201905092915050565b6000610cbb82610d16565b9150610cc683610d16565b925082821015610cd957610cd8610d60565b5b828203905092915050565b6000610cef82610cf6565b9050919050565b600073ffffffffffffffffffffffffffffffffffffffff82169050919050565b6000819050919050565b600060ff82169050919050565b60005b83811015610d4b578082015181840152602081019050610d30565b83811115610d5a576000848401525b50505050565b7f4e487b7100000000000000000000000000000000000000000000000000000000600052601160045260246000fd5b600080fd5b6000601f19601f8301169050919050565b7f7472616e736665722066726f6d20746865207a65726f20616464726573730000600082015250565b7f7472616e7366657220746f20746865207a65726f206164647265737300000000600082015250565b7f7472616e7366657220616d6f756e7420657863656564732062616c616e636500600082015250565b7f6e6f7420656e6f75676820746f6b656e73000000000000000000000000000000600082015250565b610e5281610ce4565b8114610e5d57600080fd5b50565b610e6981610d16565b8114610e7457600080fd5b5056fea26469706673582212208ac3bce0f61eefbf2dccd0d175cf24010178d169fb257e578577b2f11aff8d4c64736f6c63430008070033",
  "linkReferences": {},
  "deployedLinkReferences": {}
}