{
  "_format": "hh-sol-artifact-1",
  "contractName": "ERC20",
  "sourceName": "contracts/ERC20.sol",
  "abi": [
    {
      "inputs": [
        {
          "internalType": "address",
          "name": "_owner",
          "type": "address"
        },
        {
          "internalType": "address",
          "name": "_spender",
          "type": "address"
        }
      ],
      "name": "allowance",
      "outputs": [
        {
          "internalType": "uint256",
          "name": "",
          "type": "uint256"
        }
      ],
      "stateMutability": "view",
      "type": "function"
    },
    {
      "inputs": [
        {
          "internalType": "address",
          "name": "_owner",
          "type": "address"
        },
        {
          "internalType": "address",
          "name": "_spender",
          "type": "address"
        },
        {
          "internalType": "uint256",
          "name": "_amount",
          "type": "uint256"
        }
      ],
      "name": "approve",
      "outputs": [],
      "stateMutability": "nonpayable",
      "type": "function"
    },
    {
      "inputs": [
        {
          "internalType": "address",
          "name": "_account",
          "type": "address"
        }
      ],
      "name": "balanceOfTokens",
      "outputs": [
        {
          "internalType": "uint256",
          "name": "",
          "type": "uint256"
        }
      ],
      "stateMutability": "view",
      "type": "function"
    },
    {
      "inputs": [],
      "name": "decimals",
      "outputs": [
        {
          "internalType": "uint8",
          "name": "",
          "type": "uint8"
        }
      ],
      "stateMutability": "pure",
      "type": "function"
    },
    {
      "inputs": [
        {
          "internalType": "address",
          "name": "_to",
          "type": "address"
        },
        {
          "internalType": "uint256",
          "name": "_value",
          "type": "uint256"
        }
      ],
      "name": "mintToken",
      "outputs": [],
      "stateMutability": "payable",
      "type": "function"
    },
    {
      "inputs": [],
      "name": "name",
      "outputs": [
        {
          "internalType": "string",
          "name": "",
          "type": "string"
        }
      ],
      "stateMutability": "pure",
      "type": "function"
    },
    {
      "inputs": [],
      "name": "symbol",
      "outputs": [
        {
          "internalType": "string",
          "name": "",
          "type": "string"
        }
      ],
      "stateMutability": "pure",
      "type": "function"
    },
    {
      "inputs": [],
      "name": "totalSupply",
      "outputs": [
        {
          "internalType": "uint256",
          "name": "",
          "type": "uint256"
        }
      ],
      "stateMutability": "view",
      "type": "function"
    },
    {
      "inputs": [
        {
          "internalType": "address",
          "name": "_to",
          "type": "address"
        },
        {
          "internalType": "uint256",
          "name": "_amount",
          "type": "uint256"
        }
      ],
      "name": "transfer",
      "outputs": [],
      "stateMutability": "nonpayable",
      "type": "function"
    },
    {
      "inputs": [
        {
          "internalType": "address",
          "name": "_from",
          "type": "address"
        },
        {
          "internalType": "address",
          "name": "_to",
          "type": "address"
        },
        {
          "internalType": "uint256",
          "name": "_amount",
          "type": "uint256"
        }
      ],
      "name": "transferFrom",
      "outputs": [],
      "stateMutability": "nonpayable",
      "type": "function"
    }
  ],
  "bytecode": "0x608060405234801561001057600080fd5b50611148806100206000396000f3fe6080604052600436106100915760003560e01c806379c650681161005957806379c650681461017d57806395d89b4114610199578063a9059cbb146101c4578063dd62ed3e146101ed578063e1f21c671461022a57610091565b806306fdde031461009657806318160ddd146100c157806323b872dd146100ec5780632ff57da814610115578063313ce56714610152575b600080fd5b3480156100a257600080fd5b506100ab610253565b6040516100b89190610d6f565b60405180910390f35b3480156100cd57600080fd5b506100d6610290565b6040516100e39190610e51565b60405180910390f35b3480156100f857600080fd5b50610113600480360381019061010e9190610bb3565b61029a565b005b34801561012157600080fd5b5061013c60048036038101906101379190610b46565b6102aa565b6040516101499190610e51565b60405180910390f35b34801561015e57600080fd5b506101676102f2565b6040516101749190610e6c565b60405180910390f35b61019760048036038101906101929190610c06565b6102fb565b005b3480156101a557600080fd5b506101ae6103bd565b6040516101bb9190610d6f565b60405180910390f35b3480156101d057600080fd5b506101eb60048036038101906101e69190610c06565b6103fa565b005b3480156101f957600080fd5b50610214600480360381019061020f9190610b73565b61040f565b6040516102219190610e51565b60405180910390f35b34801561023657600080fd5b50610251600480360381019061024c9190610bb3565b610575565b005b60606040518060400160405280600b81526020017f4c6f7474657279436f696e000000000000000000000000000000000000000000815250905090565b6000600254905090565b6102a583838361076e565b505050565b60008060008373ffffffffffffffffffffffffffffffffffffffff1673ffffffffffffffffffffffffffffffffffffffff168152602001908152602001600020549050919050565b60006008905090565b600073ffffffffffffffffffffffffffffffffffffffff168273ffffffffffffffffffffffffffffffffffffffff16141561036b576040517f08c379a000000000000000000000000000000000000000000000000000000000815260040161036290610e31565b60405180910390fd5b60008114156103af576040517f08c379a00000000000000000000000000000000000000000000000000000000081526004016103a690610e11565b60405180910390fd5b6103b98282610a12565b5050565b60606040518060400160405280600381526020017f4c54430000000000000000000000000000000000000000000000000000000000815250905090565b600033905061040a81848461076e565b505050565b60008073ffffffffffffffffffffffffffffffffffffffff168373ffffffffffffffffffffffffffffffffffffffff161415610480576040517f08c379a000000000000000000000000000000000000000000000000000000000815260040161047790610d91565b60405180910390fd5b600073ffffffffffffffffffffffffffffffffffffffff168273ffffffffffffffffffffffffffffffffffffffff1614156104f0576040517f08c379a00000000000000000000000000000000000000000000000000000000081526004016104e790610db1565b60405180910390fd5b600160008473ffffffffffffffffffffffffffffffffffffffff1673ffffffffffffffffffffffffffffffffffffffff16815260200190815260200160002060008373ffffffffffffffffffffffffffffffffffffffff1673ffffffffffffffffffffffffffffffffffffffff16815260200190815260200160002054905092915050565b600073ffffffffffffffffffffffffffffffffffffffff168373ffffffffffffffffffffffffffffffffffffffff1614156105e5576040517f08c379a00000000000000000000000000000000000000000000000000000000081526004016105dc90610d91565b60405180910390fd5b600073ffffffffffffffffffffffffffffffffffffffff168273ffffffffffffffffffffffffffffffffffffffff161415610655576040517f08c379a000000000000000000000000000000000000000000000000000000000815260040161064c90610db1565b60405180910390fd5b806000808573ffffffffffffffffffffffffffffffffffffffff1673ffffffffffffffffffffffffffffffffffffffff1681526020019081526020016000205410156106d6576040517f08c379a00000000000000000000000000000000000000000000000000000000081526004016106cd90610df1565b60405180910390fd5b80600160008573ffffffffffffffffffffffffffffffffffffffff1673ffffffffffffffffffffffffffffffffffffffff16815260200190815260200160002060008473ffffffffffffffffffffffffffffffffffffffff1673ffffffffffffffffffffffffffffffffffffffff16815260200190815260200160002060008282546107629190610ea3565b92505081905550505050565b600073ffffffffffffffffffffffffffffffffffffffff168373ffffffffffffffffffffffffffffffffffffffff1614156107de576040517f08c379a00000000000000000000000000000000000000000000000000000000081526004016107d590610d91565b60405180910390fd5b600073ffffffffffffffffffffffffffffffffffffffff168273ffffffffffffffffffffffffffffffffffffffff16141561084e576040517f08c379a000000000000000000000000000000000000000000000000000000000815260040161084590610db1565b60405180910390fd5b80600160008573ffffffffffffffffffffffffffffffffffffffff1673ffffffffffffffffffffffffffffffffffffffff16815260200190815260200160002060008473ffffffffffffffffffffffffffffffffffffffff1673ffffffffffffffffffffffffffffffffffffffff1681526020019081526020016000205410156108d757600080fd5b6108e2838383610a84565b806000808573ffffffffffffffffffffffffffffffffffffffff1673ffffffffffffffffffffffffffffffffffffffff168152602001908152602001600020541015610963576040517f08c379a000000000000000000000000000000000000000000000000000000000815260040161095a90610dd1565b60405180910390fd5b806000808573ffffffffffffffffffffffffffffffffffffffff1673ffffffffffffffffffffffffffffffffffffffff16815260200190815260200160002060008282546109b19190610ef9565b92505081905550806000808473ffffffffffffffffffffffffffffffffffffffff1673ffffffffffffffffffffffffffffffffffffffff1681526020019081526020016000206000828254610a069190610ea3565b92505081905550505050565b806000808473ffffffffffffffffffffffffffffffffffffffff1673ffffffffffffffffffffffffffffffffffffffff1681526020019081526020016000206000828254610a609190610ea3565b925050819055508060026000828254610a799190610ea3565b925050819055505050565b80600160008573ffffffffffffffffffffffffffffffffffffffff1673ffffffffffffffffffffffffffffffffffffffff16815260200190815260200160002060008473ffffffffffffffffffffffffffffffffffffffff1673ffffffffffffffffffffffffffffffffffffffff1681526020019081526020016000206000828254610b109190610ef9565b92505081905550505050565b600081359050610b2b816110e4565b92915050565b600081359050610b40816110fb565b92915050565b600060208284031215610b5c57610b5b610fd8565b5b6000610b6a84828501610b1c565b91505092915050565b60008060408385031215610b8a57610b89610fd8565b5b6000610b9885828601610b1c565b9250506020610ba985828601610b1c565b9150509250929050565b600080600060608486031215610bcc57610bcb610fd8565b5b6000610bda86828701610b1c565b9350506020610beb86828701610b1c565b9250506040610bfc86828701610b31565b9150509250925092565b60008060408385031215610c1d57610c1c610fd8565b5b6000610c2b85828601610b1c565b9250506020610c3c85828601610b31565b9150509250929050565b6000610c5182610e87565b610c5b8185610e92565b9350610c6b818560208601610f76565b610c7481610fdd565b840191505092915050565b6000610c8c601e83610e92565b9150610c9782610fee565b602082019050919050565b6000610caf601c83610e92565b9150610cba82611017565b602082019050919050565b6000610cd2601f83610e92565b9150610cdd82611040565b602082019050919050565b6000610cf5601183610e92565b9150610d0082611069565b602082019050919050565b6000610d18600d83610e92565b9150610d2382611092565b602082019050919050565b6000610d3b600583610e92565b9150610d46826110bb565b602082019050919050565b610d5a81610f5f565b82525050565b610d6981610f69565b82525050565b60006020820190508181036000830152610d898184610c46565b905092915050565b60006020820190508181036000830152610daa81610c7f565b9050919050565b60006020820190508181036000830152610dca81610ca2565b9050919050565b60006020820190508181036000830152610dea81610cc5565b9050919050565b60006020820190508181036000830152610e0a81610ce8565b9050919050565b60006020820190508181036000830152610e2a81610d0b565b9050919050565b60006020820190508181036000830152610e4a81610d2e565b9050919050565b6000602082019050610e666000830184610d51565b92915050565b6000602082019050610e816000830184610d60565b92915050565b600081519050919050565b600082825260208201905092915050565b6000610eae82610f5f565b9150610eb983610f5f565b9250827fffffffffffffffffffffffffffffffffffffffffffffffffffffffffffffffff03821115610eee57610eed610fa9565b5b828201905092915050565b6000610f0482610f5f565b9150610f0f83610f5f565b925082821015610f2257610f21610fa9565b5b828203905092915050565b6000610f3882610f3f565b9050919050565b600073ffffffffffffffffffffffffffffffffffffffff82169050919050565b6000819050919050565b600060ff82169050919050565b60005b83811015610f94578082015181840152602081019050610f79565b83811115610fa3576000848401525b50505050565b7f4e487b7100000000000000000000000000000000000000000000000000000000600052601160045260246000fd5b600080fd5b6000601f19601f8301169050919050565b7f7472616e736665722066726f6d20746865207a65726f20616464726573730000600082015250565b7f7472616e7366657220746f20746865207a65726f206164647265737300000000600082015250565b7f7472616e7366657220616d6f756e7420657863656564732062616c616e636500600082015250565b7f6e6f7420656e6f75676820746f6b656e73000000000000000000000000000000600082015250565b7f746f206c6f7720616d6f756e7400000000000000000000000000000000000000600082015250565b7f4572726f72000000000000000000000000000000000000000000000000000000600082015250565b6110ed81610f2d565b81146110f857600080fd5b50565b61110481610f5f565b811461110f57600080fd5b5056fea26469706673582212204d716de57e636c5f3b1809927689d13e14ba8d0937a6854ded2f63eb1242ab2064736f6c63430008070033",
  "linkReferences": {},
  "deployedLinkReferences": {}
}