{
  "_format": "hh-sol-artifact-1",
  "contractName": "Lottery",
  "sourceName": "contracts/MyLotteryZanozin.sol",
  "abi": [
    {
      "inputs": [],
      "name": "balanceOf",
      "outputs": [
        {
          "internalType": "uint256",
          "name": "",
          "type": "uint256"
        }
      ],
      "stateMutability": "view",
      "type": "function"
    },
    {
      "inputs": [],
      "name": "bankOfLottery",
      "outputs": [
        {
          "internalType": "uint256",
          "name": "",
          "type": "uint256"
        }
      ],
      "stateMutability": "view",
      "type": "function"
    },
    {
      "inputs": [],
      "name": "buyTicket",
      "outputs": [],
      "stateMutability": "payable",
      "type": "function"
    },
    {
      "inputs": [],
      "name": "lastWinner",
      "outputs": [
        {
          "internalType": "address[]",
          "name": "",
          "type": "address[]"
        }
      ],
      "stateMutability": "view",
      "type": "function"
    },
    {
      "inputs": [],
      "name": "membersOfLottery",
      "outputs": [
        {
          "internalType": "address payable[]",
          "name": "",
          "type": "address[]"
        }
      ],
      "stateMutability": "view",
      "type": "function"
    },
    {
      "inputs": [],
      "name": "myTicket",
      "outputs": [
        {
          "internalType": "uint256",
          "name": "",
          "type": "uint256"
        }
      ],
      "stateMutability": "view",
      "type": "function"
    },
    {
      "inputs": [],
      "name": "numberOfMembers",
      "outputs": [
        {
          "internalType": "uint256",
          "name": "",
          "type": "uint256"
        }
      ],
      "stateMutability": "view",
      "type": "function"
    },
    {
      "inputs": [],
      "name": "pickWinner",
      "outputs": [],
      "stateMutability": "nonpayable",
      "type": "function"
    }
  ],
  "bytecode": "0x608060405233600460006101000a81548173ffffffffffffffffffffffffffffffffffffffff021916908373ffffffffffffffffffffffffffffffffffffffff16021790555034801561005157600080fd5b50610da5806100616000396000f3fe60806040526004361061007b5760003560e01c8063a30e3fa91161004e578063a30e3fa914610118578063c3b1cd8914610143578063edca914c1461016e578063fe188184146101785761007b565b806310c88a6914610080578063329ef94c146100ab5780635d495aea146100d6578063722713f7146100ed575b600080fd5b34801561008c57600080fd5b506100956101a3565b6040516100a29190610a8b565b60405180910390f35b3480156100b757600080fd5b506100c06101ab565b6040516100cd9190610a69565b60405180910390f35b3480156100e257600080fd5b506100eb610239565b005b3480156100f957600080fd5b50610102610463565b60405161010f9190610a8b565b60405180910390f35b34801561012457600080fd5b5061012d610482565b60405161013a9190610a8b565b60405180910390f35b34801561014f57600080fd5b50610158610488565b6040516101659190610a8b565b60405180910390f35b6101766104ce565b005b34801561018457600080fd5b5061018d6106d7565b60405161019a9190610a47565b60405180910390f35b600047905090565b6060600380548060200260200160405190810160405280929190818152602001828054801561022f57602002820191906000526020600020905b8160009054906101000a900473ffffffffffffffffffffffffffffffffffffffff1673ffffffffffffffffffffffffffffffffffffffff16815260200190600101908083116101e5575b5050505050905090565b600460009054906101000a900473ffffffffffffffffffffffffffffffffffffffff1673ffffffffffffffffffffffffffffffffffffffff163373ffffffffffffffffffffffffffffffffffffffff161461029357600080fd5b670de0b6b3a76400006102a46101a3565b116102ae57600080fd5b6102b6610765565b60006003805490506102c66107f5565b6102d09190610c75565b9050600381815481106102e6576102e5610d04565b5b9060005260206000200160009054906101000a900473ffffffffffffffffffffffffffffffffffffffff1673ffffffffffffffffffffffffffffffffffffffff166108fc479081150290604051600060405180830381858888f19350505050158015610356573d6000803e3d6000fd5b5060026003828154811061036d5761036c610d04565b5b9060005260206000200160009054906101000a900473ffffffffffffffffffffffffffffffffffffffff169080600181540180825580915050600190039060005260206000200160009091909190916101000a81548173ffffffffffffffffffffffffffffffffffffffff021916908373ffffffffffffffffffffffffffffffffffffffff160217905550600067ffffffffffffffff81111561041357610412610d33565b5b6040519080825280602002602001820160405280156104415781602001602082028036833780820191505090505b506003908051906020019061045792919061082d565b50600060058190555050565b60003373ffffffffffffffffffffffffffffffffffffffff1631905090565b60055481565b60008060003373ffffffffffffffffffffffffffffffffffffffff1673ffffffffffffffffffffffffffffffffffffffff16815260200190815260200160002054905090565b678ac7230489e80000600554111580156104ef5750670de0b6b3a764000034145b8015610539575060018060003373ffffffffffffffffffffffffffffffffffffffff1673ffffffffffffffffffffffffffffffffffffffff16815260200190815260200160002054105b61054257600080fd5b670de0b6b3a7640000346105569190610b6e565b600560008282546105679190610b18565b925050819055503373ffffffffffffffffffffffffffffffffffffffff166108fc60019081150290604051600060405180830381858888f193505050501580156105b5573d6000803e3d6000fd5b5060016003805490506105c89190610b18565b6000803373ffffffffffffffffffffffffffffffffffffffff1673ffffffffffffffffffffffffffffffffffffffff16815260200190815260200160002060008282546106159190610b18565b9250508190555060018060003373ffffffffffffffffffffffffffffffffffffffff1673ffffffffffffffffffffffffffffffffffffffff168152602001908152602001600020600082825461066b9190610b18565b925050819055506003339080600181540180825580915050600190039060005260206000200160009091909190916101000a81548173ffffffffffffffffffffffffffffffffffffffff021916908373ffffffffffffffffffffffffffffffffffffffff160217905550565b6060600280548060200260200160405190810160405280929190818152602001828054801561075b57602002820191906000526020600020905b8160009054906101000a900473ffffffffffffffffffffffffffffffffffffffff1673ffffffffffffffffffffffffffffffffffffffff1681526020019060010190808311610711575b5050505050905090565b600060646107716101a3565b600a61077d9190610b9f565b6107879190610b6e565b9050600460009054906101000a900473ffffffffffffffffffffffffffffffffffffffff1673ffffffffffffffffffffffffffffffffffffffff166108fc829081150290604051600060405180830381858888f193505050501580156107f1573d6000803e3d6000fd5b5050565b600080339050804260405160200161080e929190610a1b565b6040516020818303038152906040528051906020012060001c91505090565b8280548282559060005260206000209081019282156108a6579160200282015b828111156108a55782518260006101000a81548173ffffffffffffffffffffffffffffffffffffffff021916908373ffffffffffffffffffffffffffffffffffffffff1602179055509160200191906001019061084d565b5b5090506108b391906108b7565b5090565b5b808211156108d05760008160009055506001016108b8565b5090565b60006108e08383610904565b60208301905092915050565b60006108f88383610913565b60208301905092915050565b61090d81610c0b565b82525050565b61091c81610bf9565b82525050565b61093361092e82610bf9565b610c47565b82525050565b600061094482610ac6565b61094e8185610af6565b935061095983610aa6565b8060005b8381101561098a57815161097188826108ec565b975061097c83610adc565b92505060018101905061095d565b5085935050505092915050565b60006109a282610ad1565b6109ac8185610b07565b93506109b783610ab6565b8060005b838110156109e85781516109cf88826108d4565b97506109da83610ae9565b9250506001810190506109bb565b5085935050505092915050565b6109fe81610c3d565b82525050565b610a15610a1082610c3d565b610c6b565b82525050565b6000610a278285610922565b601482019150610a378284610a04565b6020820191508190509392505050565b60006020820190508181036000830152610a618184610939565b905092915050565b60006020820190508181036000830152610a838184610997565b905092915050565b6000602082019050610aa060008301846109f5565b92915050565b6000819050602082019050919050565b6000819050602082019050919050565b600081519050919050565b600081519050919050565b6000602082019050919050565b6000602082019050919050565b600082825260208201905092915050565b600082825260208201905092915050565b6000610b2382610c3d565b9150610b2e83610c3d565b9250827fffffffffffffffffffffffffffffffffffffffffffffffffffffffffffffffff03821115610b6357610b62610ca6565b5b828201905092915050565b6000610b7982610c3d565b9150610b8483610c3d565b925082610b9457610b93610cd5565b5b828204905092915050565b6000610baa82610c3d565b9150610bb583610c3d565b9250817fffffffffffffffffffffffffffffffffffffffffffffffffffffffffffffffff0483118215151615610bee57610bed610ca6565b5b828202905092915050565b6000610c0482610c1d565b9050919050565b6000610c1682610c1d565b9050919050565b600073ffffffffffffffffffffffffffffffffffffffff82169050919050565b6000819050919050565b6000610c5282610c59565b9050919050565b6000610c6482610d62565b9050919050565b6000819050919050565b6000610c8082610c3d565b9150610c8b83610c3d565b925082610c9b57610c9a610cd5565b5b828206905092915050565b7f4e487b7100000000000000000000000000000000000000000000000000000000600052601160045260246000fd5b7f4e487b7100000000000000000000000000000000000000000000000000000000600052601260045260246000fd5b7f4e487b7100000000000000000000000000000000000000000000000000000000600052603260045260246000fd5b7f4e487b7100000000000000000000000000000000000000000000000000000000600052604160045260246000fd5b60008160601b905091905056fea264697066735822122025943c3f6c3a239b2d86a78a07226275f3b6a5f94a5abd9f48d5a9ca4ac53cd864736f6c63430008070033",
  "linkReferences": {},
  "deployedLinkReferences": {}
}