{
  "_format": "hh-sol-artifact-1",
  "contractName": "Lottery",
  "sourceName": "contracts/MyLotteryZanozin.sol",
  "abi": [
    {
      "inputs": [
        {
          "internalType": "address",
          "name": "_owner",
          "type": "address"
        },
        {
          "internalType": "address",
          "name": "_spender",
          "type": "address"
        }
      ],
      "name": "allowance",
      "outputs": [
        {
          "internalType": "uint256",
          "name": "",
          "type": "uint256"
        }
      ],
      "stateMutability": "view",
      "type": "function"
    },
    {
      "inputs": [
        {
          "internalType": "address",
          "name": "_owner",
          "type": "address"
        },
        {
          "internalType": "address",
          "name": "_spender",
          "type": "address"
        },
        {
          "internalType": "uint256",
          "name": "_amount",
          "type": "uint256"
        }
      ],
      "name": "approve",
      "outputs": [],
      "stateMutability": "nonpayable",
      "type": "function"
    },
    {
      "inputs": [
        {
          "internalType": "address",
          "name": "to",
          "type": "address"
        },
        {
          "internalType": "uint256",
          "name": "tokenId",
          "type": "uint256"
        }
      ],
      "name": "approveNFT",
      "outputs": [],
      "stateMutability": "nonpayable",
      "type": "function"
    },
    {
      "inputs": [],
      "name": "balanceOfETH",
      "outputs": [
        {
          "internalType": "uint256",
          "name": "",
          "type": "uint256"
        }
      ],
      "stateMutability": "view",
      "type": "function"
    },
    {
      "inputs": [
        {
          "internalType": "address",
          "name": "owner",
          "type": "address"
        }
      ],
      "name": "balanceOfNFT",
      "outputs": [
        {
          "internalType": "uint256",
          "name": "",
          "type": "uint256"
        }
      ],
      "stateMutability": "view",
      "type": "function"
    },
    {
      "inputs": [
        {
          "internalType": "address",
          "name": "_account",
          "type": "address"
        }
      ],
      "name": "balanceOfTokens",
      "outputs": [
        {
          "internalType": "uint256",
          "name": "",
          "type": "uint256"
        }
      ],
      "stateMutability": "view",
      "type": "function"
    },
    {
      "inputs": [],
      "name": "bankOfLottery",
      "outputs": [
        {
          "internalType": "uint256",
          "name": "",
          "type": "uint256"
        }
      ],
      "stateMutability": "view",
      "type": "function"
    },
    {
      "inputs": [
        {
          "internalType": "uint256",
          "name": "amount",
          "type": "uint256"
        }
      ],
      "name": "buyTicketByTokens",
      "outputs": [],
      "stateMutability": "nonpayable",
      "type": "function"
    },
    {
      "inputs": [
        {
          "internalType": "uint256",
          "name": "amountTokens",
          "type": "uint256"
        }
      ],
      "name": "buyTokens",
      "outputs": [],
      "stateMutability": "payable",
      "type": "function"
    },
    {
      "inputs": [],
      "name": "decimals",
      "outputs": [
        {
          "internalType": "uint8",
          "name": "",
          "type": "uint8"
        }
      ],
      "stateMutability": "pure",
      "type": "function"
    },
    {
      "inputs": [
        {
          "internalType": "uint256",
          "name": "tokenId",
          "type": "uint256"
        }
      ],
      "name": "getApprovedNFT",
      "outputs": [
        {
          "internalType": "address",
          "name": "operator",
          "type": "address"
        }
      ],
      "stateMutability": "view",
      "type": "function"
    },
    {
      "inputs": [
        {
          "internalType": "address",
          "name": "_owner",
          "type": "address"
        },
        {
          "internalType": "address",
          "name": "_operator",
          "type": "address"
        }
      ],
      "name": "isApprovedForAll",
      "outputs": [
        {
          "internalType": "bool",
          "name": "operatorApprove",
          "type": "bool"
        }
      ],
      "stateMutability": "view",
      "type": "function"
    },
    {
      "inputs": [],
      "name": "lastWinner",
      "outputs": [
        {
          "internalType": "address[]",
          "name": "",
          "type": "address[]"
        }
      ],
      "stateMutability": "view",
      "type": "function"
    },
    {
      "inputs": [],
      "name": "membersOfLottery",
      "outputs": [
        {
          "internalType": "address payable[]",
          "name": "",
          "type": "address[]"
        }
      ],
      "stateMutability": "view",
      "type": "function"
    },
    {
      "inputs": [],
      "name": "myTicket",
      "outputs": [
        {
          "internalType": "uint256",
          "name": "",
          "type": "uint256"
        }
      ],
      "stateMutability": "view",
      "type": "function"
    },
    {
      "inputs": [],
      "name": "name",
      "outputs": [
        {
          "internalType": "string",
          "name": "",
          "type": "string"
        }
      ],
      "stateMutability": "pure",
      "type": "function"
    },
    {
      "inputs": [],
      "name": "nameNFT",
      "outputs": [
        {
          "internalType": "string",
          "name": "",
          "type": "string"
        }
      ],
      "stateMutability": "view",
      "type": "function"
    },
    {
      "inputs": [],
      "name": "nftTotalSupply",
      "outputs": [
        {
          "internalType": "uint256",
          "name": "",
          "type": "uint256"
        }
      ],
      "stateMutability": "view",
      "type": "function"
    },
    {
      "inputs": [],
      "name": "numberOfMembers",
      "outputs": [
        {
          "internalType": "uint256",
          "name": "",
          "type": "uint256"
        }
      ],
      "stateMutability": "view",
      "type": "function"
    },
    {
      "inputs": [
        {
          "internalType": "uint256",
          "name": "tokenId",
          "type": "uint256"
        }
      ],
      "name": "ownerOf",
      "outputs": [
        {
          "internalType": "address",
          "name": "",
          "type": "address"
        }
      ],
      "stateMutability": "view",
      "type": "function"
    },
    {
      "inputs": [],
      "name": "pickWinner",
      "outputs": [],
      "stateMutability": "nonpayable",
      "type": "function"
    },
    {
      "inputs": [
        {
          "internalType": "address",
          "name": "_owner",
          "type": "address"
        },
        {
          "internalType": "address",
          "name": "_operator",
          "type": "address"
        },
        {
          "internalType": "bool",
          "name": "_approved",
          "type": "bool"
        }
      ],
      "name": "setApprovalForAll",
      "outputs": [],
      "stateMutability": "nonpayable",
      "type": "function"
    },
    {
      "inputs": [],
      "name": "symbol",
      "outputs": [
        {
          "internalType": "string",
          "name": "",
          "type": "string"
        }
      ],
      "stateMutability": "pure",
      "type": "function"
    },
    {
      "inputs": [],
      "name": "symbolNFT",
      "outputs": [
        {
          "internalType": "string",
          "name": "",
          "type": "string"
        }
      ],
      "stateMutability": "view",
      "type": "function"
    },
    {
      "inputs": [
        {
          "internalType": "uint256",
          "name": "tokenId",
          "type": "uint256"
        }
      ],
      "name": "tokenURI",
      "outputs": [
        {
          "internalType": "string",
          "name": "",
          "type": "string"
        }
      ],
      "stateMutability": "view",
      "type": "function"
    },
    {
      "inputs": [],
      "name": "totalSupply",
      "outputs": [
        {
          "internalType": "uint256",
          "name": "",
          "type": "uint256"
        }
      ],
      "stateMutability": "view",
      "type": "function"
    },
    {
      "inputs": [
        {
          "internalType": "address",
          "name": "_to",
          "type": "address"
        },
        {
          "internalType": "uint256",
          "name": "_amount",
          "type": "uint256"
        }
      ],
      "name": "transfer",
      "outputs": [],
      "stateMutability": "nonpayable",
      "type": "function"
    },
    {
      "inputs": [
        {
          "internalType": "address",
          "name": "_from",
          "type": "address"
        },
        {
          "internalType": "address",
          "name": "_to",
          "type": "address"
        },
        {
          "internalType": "uint256",
          "name": "_amount",
          "type": "uint256"
        }
      ],
      "name": "transferFrom",
      "outputs": [],
      "stateMutability": "nonpayable",
      "type": "function"
    },
    {
      "inputs": [
        {
          "internalType": "address",
          "name": "from",
          "type": "address"
        },
        {
          "internalType": "address",
          "name": "to",
          "type": "address"
        },
        {
          "internalType": "uint256",
          "name": "tokenId",
          "type": "uint256"
        }
      ],
      "name": "transferFromNFT",
      "outputs": [],
      "stateMutability": "nonpayable",
      "type": "function"
    }
  ],
  "bytecode": "0x60806040526040518060400160405280600981526020017f5469636b65744e465400000000000000000000000000000000000000000000008152506003908051906020019062000051929190620000f5565b506040518060400160405280600381526020017f54544e0000000000000000000000000000000000000000000000000000000000815250600490805190602001906200009f929190620000f5565b5033600f60006101000a81548173ffffffffffffffffffffffffffffffffffffffff021916908373ffffffffffffffffffffffffffffffffffffffff160217905550348015620000ee57600080fd5b506200020a565b8280546200010390620001a5565b90600052602060002090601f01602090048101928262000127576000855562000173565b82601f106200014257805160ff191683800117855562000173565b8280016001018555821562000173579182015b828111156200017257825182559160200191906001019062000155565b5b50905062000182919062000186565b5090565b5b80821115620001a157600081600090555060010162000187565b5090565b60006002820490506001821680620001be57607f821691505b60208210811415620001d557620001d4620001db565b5b50919050565b7f4e487b7100000000000000000000000000000000000000000000000000000000600052602260045260246000fd5b613541806200021a6000396000f3fe6080604052600436106101c25760003560e01c80636352211e116100f7578063c3b1cd8911610095578063e1f21c6711610064578063e1f21c6714610625578063e985e9c51461064e578063f5b100ea1461068b578063fe188184146106c8576101c2565b8063c3b1cd8914610555578063c87b56dd14610580578063c9ba55ff146105bd578063dd62ed3e146105e8576101c2565b80639600dd83116100d15780639600dd83146104af5780639a295ed3146104d8578063a30e3fa914610501578063a9059cbb1461052c576101c2565b80636352211e1461041c5780638ea5b8021461045957806395d89b4114610484576101c2565b806327ef549511610164578063329ef94c1161013e578063329ef94c146103955780633610724e146103c0578063367605ca146103dc5780635d495aea14610405576101c2565b806327ef5495146102f05780632ff57da81461032d578063313ce5671461036a576101c2565b806310c88a69116101a057806310c88a6914610248578063129763c21461027357806318160ddd1461029c57806323b872dd146102c7576101c2565b806306fdde03146101c75780630803a3e3146101f25780630bb237841461021d575b600080fd5b3480156101d357600080fd5b506101dc6106f3565b6040516101e99190612c0f565b60405180910390f35b3480156101fe57600080fd5b50610207610730565b6040516102149190612c0f565b60405180910390f35b34801561022957600080fd5b506102326107c2565b60405161023f9190612db1565b60405180910390f35b34801561025457600080fd5b5061025d6107c8565b60405161026a9190612db1565b60405180910390f35b34801561027f57600080fd5b5061029a60048036038101906102959190612703565b6107d0565b005b3480156102a857600080fd5b506102b161094b565b6040516102be9190612db1565b60405180910390f35b3480156102d357600080fd5b506102ee60048036038101906102e99190612703565b610955565b005b3480156102fc57600080fd5b5061031760048036038101906103129190612796565b610965565b6040516103249190612b95565b60405180910390f35b34801561033957600080fd5b50610354600480360381019061034f9190612643565b6109a2565b6040516103619190612db1565b60405180910390f35b34801561037657600080fd5b5061037f6109ea565b60405161038c9190612dcc565b60405180910390f35b3480156103a157600080fd5b506103aa6109f3565b6040516103b79190612bd2565b60405180910390f35b6103da60048036038101906103d59190612796565b610a81565b005b3480156103e857600080fd5b5061040360048036038101906103fe91906126b0565b610aae565b005b34801561041157600080fd5b5061041a610bf3565b005b34801561042857600080fd5b50610443600480360381019061043e9190612796565b610e2d565b6040516104509190612b95565b60405180910390f35b34801561046557600080fd5b5061046e610f0c565b60405161047b9190612db1565b60405180910390f35b34801561049057600080fd5b50610499610f2b565b6040516104a69190612c0f565b60405180910390f35b3480156104bb57600080fd5b506104d660048036038101906104d19190612756565b610f68565b005b3480156104e457600080fd5b506104ff60048036038101906104fa9190612796565b6110ba565b005b34801561050d57600080fd5b50610516611285565b6040516105239190612db1565b60405180910390f35b34801561053857600080fd5b50610553600480360381019061054e9190612756565b61128b565b005b34801561056157600080fd5b5061056a6112a0565b6040516105779190612db1565b60405180910390f35b34801561058c57600080fd5b506105a760048036038101906105a29190612796565b6112e7565b6040516105b49190612c0f565b60405180910390f35b3480156105c957600080fd5b506105d26113e9565b6040516105df9190612c0f565b60405180910390f35b3480156105f457600080fd5b5061060f600480360381019061060a9190612670565b61147b565b60405161061c9190612db1565b60405180910390f35b34801561063157600080fd5b5061064c60048036038101906106479190612703565b6115e1565b005b34801561065a57600080fd5b5061067560048036038101906106709190612670565b6117da565b6040516106829190612bf4565b60405180910390f35b34801561069757600080fd5b506106b260048036038101906106ad9190612643565b61186e565b6040516106bf9190612db1565b60405180910390f35b3480156106d457600080fd5b506106dd611926565b6040516106ea9190612bb0565b60405180910390f35b60606040518060400160405280600b81526020017f4c6f7474657279436f696e000000000000000000000000000000000000000000815250905090565b60606004805461073f9061302f565b80601f016020809104026020016040519081016040528092919081815260200182805461076b9061302f565b80156107b85780601f1061078d576101008083540402835291602001916107b8565b820191906000526020600020905b81548152906001019060200180831161079b57829003601f168201915b5050505050905090565b60065481565b600047905090565b600073ffffffffffffffffffffffffffffffffffffffff168373ffffffffffffffffffffffffffffffffffffffff161415801561083a5750600073ffffffffffffffffffffffffffffffffffffffff168273ffffffffffffffffffffffffffffffffffffffff1614155b8015610847575060008114155b61085057600080fd5b61085a33826119b4565b610899576040517f08c379a000000000000000000000000000000000000000000000000000000000815260040161089090612d51565b60405180910390fd5b8173ffffffffffffffffffffffffffffffffffffffff166009600083815260200190815260200160002060009054906101000a900473ffffffffffffffffffffffffffffffffffffffff1673ffffffffffffffffffffffffffffffffffffffff161461090457600080fd5b8173ffffffffffffffffffffffffffffffffffffffff166009600083815260200190815260200160002060009054906101000a90505050610946838383611a90565b505050565b6000600254905090565b610960838383611b93565b505050565b60006009600083815260200190815260200160002060009054906101000a900473ffffffffffffffffffffffffffffffffffffffff169050919050565b60008060008373ffffffffffffffffffffffffffffffffffffffff1673ffffffffffffffffffffffffffffffffffffffff168152602001908152602001600020549050919050565b60006008905090565b6060600e805480602002602001604051908101604052809291908181526020018280548015610a7757602002820191906000526020600020905b8160009054906101000a900473ffffffffffffffffffffffffffffffffffffffff1673ffffffffffffffffffffffffffffffffffffffff1681526020019060010190808311610a2d575b5050505050905090565b6001670de0b6b3a764000034610a979190612ed6565b14610aa157600080fd5b610aab3382611e37565b50565b600073ffffffffffffffffffffffffffffffffffffffff168373ffffffffffffffffffffffffffffffffffffffff1614158015610b185750600073ffffffffffffffffffffffffffffffffffffffff168273ffffffffffffffffffffffffffffffffffffffff1614155b610b2157600080fd5b8173ffffffffffffffffffffffffffffffffffffffff168373ffffffffffffffffffffffffffffffffffffffff161415610b5a57600080fd5b80600a60008573ffffffffffffffffffffffffffffffffffffffff1673ffffffffffffffffffffffffffffffffffffffff16815260200190815260200160002060008473ffffffffffffffffffffffffffffffffffffffff1673ffffffffffffffffffffffffffffffffffffffff16815260200190815260200160002060006101000a81548160ff021916908315150217905550505050565b600f60009054906101000a900473ffffffffffffffffffffffffffffffffffffffff1673ffffffffffffffffffffffffffffffffffffffff163373ffffffffffffffffffffffffffffffffffffffff1614610c4d57600080fd5b670de0b6b3a7640000610c5e6107c8565b11610c6857600080fd5b610c70611f5d565b610c78611fd3565b610c806120ff565b6000600e80549050610c9061218f565b610c9a91906130d8565b9050600e8181548110610cb057610caf613196565b5b9060005260206000200160009054906101000a900473ffffffffffffffffffffffffffffffffffffffff1673ffffffffffffffffffffffffffffffffffffffff166108fc479081150290604051600060405180830381858888f19350505050158015610d20573d6000803e3d6000fd5b50600d600e8281548110610d3757610d36613196565b5b9060005260206000200160009054906101000a900473ffffffffffffffffffffffffffffffffffffffff169080600181540180825580915050600190039060005260206000200160009091909190916101000a81548173ffffffffffffffffffffffffffffffffffffffff021916908373ffffffffffffffffffffffffffffffffffffffff160217905550600067ffffffffffffffff811115610ddd57610ddc6131c5565b5b604051908082528060200260200182016040528015610e0b5781602001602082028036833780820191505090505b50600e9080519060200190610e2192919061255d565b50600060108190555050565b60008073ffffffffffffffffffffffffffffffffffffffff166007600084815260200190815260200160002060009054906101000a900473ffffffffffffffffffffffffffffffffffffffff1673ffffffffffffffffffffffffffffffffffffffff161415610ed1576040517f08c379a0000000000000000000000000000000000000000000000000000000008152600401610ec890612c71565b60405180910390fd5b6007600083815260200190815260200160002060009054906101000a900473ffffffffffffffffffffffffffffffffffffffff169050919050565b60003373ffffffffffffffffffffffffffffffffffffffff1631905090565b60606040518060400160405280600381526020017f4c54430000000000000000000000000000000000000000000000000000000000815250905090565b6000610f7382610e2d565b90508073ffffffffffffffffffffffffffffffffffffffff168373ffffffffffffffffffffffffffffffffffffffff161415610fe4576040517f08c379a0000000000000000000000000000000000000000000000000000000008152600401610fdb90612cf1565b60405180910390fd5b8073ffffffffffffffffffffffffffffffffffffffff163373ffffffffffffffffffffffffffffffffffffffff161480611024575061102381336117da565b5b611063576040517f08c379a000000000000000000000000000000000000000000000000000000000815260040161105a90612c31565b60405180910390fd5b826009600084815260200190815260200160002060006101000a81548173ffffffffffffffffffffffffffffffffffffffff021916908373ffffffffffffffffffffffffffffffffffffffff160217905550505050565b600a6010541080156110cc5750600181145b80156110e0575060016110de336109a2565b145b6110e957600080fd5b80601060008282546110fb9190612e80565b925050819055506001600e805490506111149190612e80565b600b60003373ffffffffffffffffffffffffffffffffffffffff1673ffffffffffffffffffffffffffffffffffffffff16815260200190815260200160002060008282546111629190612e80565b925050819055506001600c60003373ffffffffffffffffffffffffffffffffffffffff1673ffffffffffffffffffffffffffffffffffffffff16815260200190815260200160002060008282546111b99190612e80565b92505081905550806000803373ffffffffffffffffffffffffffffffffffffffff1673ffffffffffffffffffffffffffffffffffffffff168152602001908152602001600020600082825461120e9190612f61565b9250508190555061121e336121c7565b50600e339080600181540180825580915050600190039060005260206000200160009091909190916101000a81548173ffffffffffffffffffffffffffffffffffffffff021916908373ffffffffffffffffffffffffffffffffffffffff16021790555050565b60105481565b600033905061129b818484611b93565b505050565b6000600b60003373ffffffffffffffffffffffffffffffffffffffff1673ffffffffffffffffffffffffffffffffffffffff16815260200190815260200160002054905090565b6060600073ffffffffffffffffffffffffffffffffffffffff166007600084815260200190815260200160002060009054906101000a900473ffffffffffffffffffffffffffffffffffffffff1673ffffffffffffffffffffffffffffffffffffffff16141561138c576040517f08c379a000000000000000000000000000000000000000000000000000000000815260040161138390612c51565b60405180910390fd5b6000611396612344565b905060008151116113b657604051806020016040528060008152506113e1565b806113c084612364565b6040516020016113d1929190612b71565b6040516020818303038152906040525b915050919050565b6060600380546113f89061302f565b80601f01602080910402602001604051908101604052809291908181526020018280546114249061302f565b80156114715780601f1061144657610100808354040283529160200191611471565b820191906000526020600020905b81548152906001019060200180831161145457829003601f168201915b5050505050905090565b60008073ffffffffffffffffffffffffffffffffffffffff168373ffffffffffffffffffffffffffffffffffffffff1614156114ec576040517f08c379a00000000000000000000000000000000000000000000000000000000081526004016114e390612cb1565b60405180910390fd5b600073ffffffffffffffffffffffffffffffffffffffff168273ffffffffffffffffffffffffffffffffffffffff16141561155c576040517f08c379a000000000000000000000000000000000000000000000000000000000815260040161155390612cd1565b60405180910390fd5b600160008473ffffffffffffffffffffffffffffffffffffffff1673ffffffffffffffffffffffffffffffffffffffff16815260200190815260200160002060008373ffffffffffffffffffffffffffffffffffffffff1673ffffffffffffffffffffffffffffffffffffffff16815260200190815260200160002054905092915050565b600073ffffffffffffffffffffffffffffffffffffffff168373ffffffffffffffffffffffffffffffffffffffff161415611651576040517f08c379a000000000000000000000000000000000000000000000000000000000815260040161164890612cb1565b60405180910390fd5b600073ffffffffffffffffffffffffffffffffffffffff168273ffffffffffffffffffffffffffffffffffffffff1614156116c1576040517f08c379a00000000000000000000000000000000000000000000000000000000081526004016116b890612cd1565b60405180910390fd5b806000808573ffffffffffffffffffffffffffffffffffffffff1673ffffffffffffffffffffffffffffffffffffffff168152602001908152602001600020541015611742576040517f08c379a000000000000000000000000000000000000000000000000000000000815260040161173990612d31565b60405180910390fd5b80600160008573ffffffffffffffffffffffffffffffffffffffff1673ffffffffffffffffffffffffffffffffffffffff16815260200190815260200160002060008473ffffffffffffffffffffffffffffffffffffffff1673ffffffffffffffffffffffffffffffffffffffff16815260200190815260200160002060008282546117ce9190612e80565b92505081905550505050565b6000600a60008473ffffffffffffffffffffffffffffffffffffffff1673ffffffffffffffffffffffffffffffffffffffff16815260200190815260200160002060008373ffffffffffffffffffffffffffffffffffffffff1673ffffffffffffffffffffffffffffffffffffffff16815260200190815260200160002060009054906101000a900460ff16905092915050565b60008073ffffffffffffffffffffffffffffffffffffffff168273ffffffffffffffffffffffffffffffffffffffff1614156118df576040517f08c379a00000000000000000000000000000000000000000000000000000000081526004016118d690612c91565b60405180910390fd5b600860008373ffffffffffffffffffffffffffffffffffffffff1673ffffffffffffffffffffffffffffffffffffffff168152602001908152602001600020549050919050565b6060600d8054806020026020016040519081016040528092919081815260200182805480156119aa57602002820191906000526020600020905b8160009054906101000a900473ffffffffffffffffffffffffffffffffffffffff1673ffffffffffffffffffffffffffffffffffffffff1681526020019060010190808311611960575b5050505050905090565b60008073ffffffffffffffffffffffffffffffffffffffff168373ffffffffffffffffffffffffffffffffffffffff16141580156119f3575060008214155b6119fc57600080fd5b6000611a0783610e2d565b90508373ffffffffffffffffffffffffffffffffffffffff168173ffffffffffffffffffffffffffffffffffffffff161480611a7657508373ffffffffffffffffffffffffffffffffffffffff16611a5e84610965565b73ffffffffffffffffffffffffffffffffffffffff16145b80611a875750611a8681856117da565b5b91505092915050565b80600860008573ffffffffffffffffffffffffffffffffffffffff1673ffffffffffffffffffffffffffffffffffffffff1681526020019081526020016000206000828254611adf9190612f61565b9250508190555080600860008473ffffffffffffffffffffffffffffffffffffffff1673ffffffffffffffffffffffffffffffffffffffff1681526020019081526020016000206000828254611b359190612e80565b92505081905550816007600083815260200190815260200160002060006101000a81548173ffffffffffffffffffffffffffffffffffffffff021916908373ffffffffffffffffffffffffffffffffffffffff160217905550505050565b600073ffffffffffffffffffffffffffffffffffffffff168373ffffffffffffffffffffffffffffffffffffffff161415611c03576040517f08c379a0000000000000000000000000000000000000000000000000000000008152600401611bfa90612cb1565b60405180910390fd5b600073ffffffffffffffffffffffffffffffffffffffff168273ffffffffffffffffffffffffffffffffffffffff161415611c73576040517f08c379a0000000000000000000000000000000000000000000000000000000008152600401611c6a90612cd1565b60405180910390fd5b80600160008573ffffffffffffffffffffffffffffffffffffffff1673ffffffffffffffffffffffffffffffffffffffff16815260200190815260200160002060008473ffffffffffffffffffffffffffffffffffffffff1673ffffffffffffffffffffffffffffffffffffffff168152602001908152602001600020541015611cfc57600080fd5b611d078383836124c5565b806000808573ffffffffffffffffffffffffffffffffffffffff1673ffffffffffffffffffffffffffffffffffffffff168152602001908152602001600020541015611d88576040517f08c379a0000000000000000000000000000000000000000000000000000000008152600401611d7f90612d11565b60405180910390fd5b806000808573ffffffffffffffffffffffffffffffffffffffff1673ffffffffffffffffffffffffffffffffffffffff1681526020019081526020016000206000828254611dd69190612f61565b92505081905550806000808473ffffffffffffffffffffffffffffffffffffffff1673ffffffffffffffffffffffffffffffffffffffff1681526020019081526020016000206000828254611e2b9190612e80565b92505081905550505050565b600073ffffffffffffffffffffffffffffffffffffffff168273ffffffffffffffffffffffffffffffffffffffff161415611ea7576040517f08c379a0000000000000000000000000000000000000000000000000000000008152600401611e9e90612d91565b60405180910390fd5b6000811415611eeb576040517f08c379a0000000000000000000000000000000000000000000000000000000008152600401611ee290612d71565b60405180910390fd5b806000808473ffffffffffffffffffffffffffffffffffffffff1673ffffffffffffffffffffffffffffffffffffffff1681526020019081526020016000206000828254611f399190612e80565b925050819055508060026000828254611f529190612e80565b925050819055505050565b60005b600654811015611fd05760006007600083815260200190815260200160002060006101000a81548173ffffffffffffffffffffffffffffffffffffffff021916908373ffffffffffffffffffffffffffffffffffffffff1602179055508080611fc890613061565b915050611f60565b50565b60005b600e805490508110156120fc576000600b6000600e8481548110611ffd57611ffc613196565b5b9060005260206000200160009054906101000a900473ffffffffffffffffffffffffffffffffffffffff1673ffffffffffffffffffffffffffffffffffffffff1673ffffffffffffffffffffffffffffffffffffffff168152602001908152602001600020819055506000600c6000600e84815481106120805761207f613196565b5b9060005260206000200160009054906101000a900473ffffffffffffffffffffffffffffffffffffffff1673ffffffffffffffffffffffffffffffffffffffff1673ffffffffffffffffffffffffffffffffffffffff1681526020019081526020016000208190555080806120f490613061565b915050611fd6565b50565b6000606461210b6107c8565b600a6121179190612f07565b6121219190612ed6565b9050600f60009054906101000a900473ffffffffffffffffffffffffffffffffffffffff1673ffffffffffffffffffffffffffffffffffffffff166108fc829081150290604051600060405180830381858888f1935050505015801561218b573d6000803e3d6000fd5b5050565b60008033905080426040516020016121a8929190612b45565b6040516020818303038152906040528051906020012060001c91505090565b60006005600081546121d890613061565b91905081905550600073ffffffffffffffffffffffffffffffffffffffff168273ffffffffffffffffffffffffffffffffffffffff161415801561221f5750600060055414155b61222857600080fd5b6001600860008473ffffffffffffffffffffffffffffffffffffffff1673ffffffffffffffffffffffffffffffffffffffff168152602001908152602001600020541061227457600080fd5b600554600860008473ffffffffffffffffffffffffffffffffffffffff1673ffffffffffffffffffffffffffffffffffffffff16815260200190815260200160002060008282546122c59190612e80565b925050819055508160076000600554815260200190815260200160002060006101000a81548173ffffffffffffffffffffffffffffffffffffffff021916908373ffffffffffffffffffffffffffffffffffffffff1602179055506001600660008282546123339190612e80565b925050819055506005549050919050565b60606040518060800160405280605181526020016134bb60519139905090565b606060008214156123ac576040518060400160405280600181526020017f300000000000000000000000000000000000000000000000000000000000000081525090506124c0565b600082905060005b600082146123de5780806123c790613061565b915050600a826123d79190612ed6565b91506123b4565b60008167ffffffffffffffff8111156123fa576123f96131c5565b5b6040519080825280601f01601f19166020018201604052801561242c5781602001600182028036833780820191505090505b5090505b600085146124b9576001826124459190612f61565b9150600a8561245491906130d8565b60306124609190612e80565b60f81b81838151811061247657612475613196565b5b60200101907effffffffffffffffffffffffffffffffffffffffffffffffffffffffffffff1916908160001a905350600a856124b29190612ed6565b9450612430565b8093505050505b919050565b80600160008573ffffffffffffffffffffffffffffffffffffffff1673ffffffffffffffffffffffffffffffffffffffff16815260200190815260200160002060008473ffffffffffffffffffffffffffffffffffffffff1673ffffffffffffffffffffffffffffffffffffffff16815260200190815260200160002060008282546125519190612f61565b92505081905550505050565b8280548282559060005260206000209081019282156125d6579160200282015b828111156125d55782518260006101000a81548173ffffffffffffffffffffffffffffffffffffffff021916908373ffffffffffffffffffffffffffffffffffffffff1602179055509160200191906001019061257d565b5b5090506125e391906125e7565b5090565b5b808211156126005760008160009055506001016125e8565b5090565b60008135905061261381613475565b92915050565b6000813590506126288161348c565b92915050565b60008135905061263d816134a3565b92915050565b600060208284031215612659576126586131f4565b5b600061266784828501612604565b91505092915050565b60008060408385031215612687576126866131f4565b5b600061269585828601612604565b92505060206126a685828601612604565b9150509250929050565b6000806000606084860312156126c9576126c86131f4565b5b60006126d786828701612604565b93505060206126e886828701612604565b92505060406126f986828701612619565b9150509250925092565b60008060006060848603121561271c5761271b6131f4565b5b600061272a86828701612604565b935050602061273b86828701612604565b925050604061274c8682870161262e565b9150509250925092565b6000806040838503121561276d5761276c6131f4565b5b600061277b85828601612604565b925050602061278c8582860161262e565b9150509250929050565b6000602082840312156127ac576127ab6131f4565b5b60006127ba8482850161262e565b91505092915050565b60006127cf83836127f3565b60208301905092915050565b60006127e78383612802565b60208301905092915050565b6127fc81612fa7565b82525050565b61280b81612f95565b82525050565b61281a81612f95565b82525050565b61283161282c82612f95565b6130aa565b82525050565b600061284282612e07565b61284c8185612e42565b935061285783612de7565b8060005b8381101561288857815161286f88826127db565b975061287a83612e28565b92505060018101905061285b565b5085935050505092915050565b60006128a082612e12565b6128aa8185612e53565b93506128b583612df7565b8060005b838110156128e65781516128cd88826127c3565b97506128d883612e35565b9250506001810190506128b9565b5085935050505092915050565b6128fc81612fb9565b82525050565b600061290d82612e1d565b6129178185612e64565b9350612927818560208601612ffc565b612930816131f9565b840191505092915050565b600061294682612e1d565b6129508185612e75565b9350612960818560208601612ffc565b80840191505092915050565b6000612979603083612e64565b915061298482613217565b604082019050919050565b600061299c601f83612e64565b91506129a782613266565b602082019050919050565b60006129bf601a83612e64565b91506129ca8261328f565b602082019050919050565b60006129e2602283612e64565b91506129ed826132b8565b604082019050919050565b6000612a05601e83612e64565b9150612a1082613307565b602082019050919050565b6000612a28601c83612e64565b9150612a3382613330565b602082019050919050565b6000612a4b601983612e64565b9150612a5682613359565b602082019050919050565b6000612a6e601f83612e64565b9150612a7982613382565b602082019050919050565b6000612a91601183612e64565b9150612a9c826133ab565b602082019050919050565b6000612ab4602983612e64565b9150612abf826133d4565b604082019050919050565b6000612ad7600d83612e64565b9150612ae282613423565b602082019050919050565b6000612afa600583612e64565b9150612b058261344c565b602082019050919050565b612b1981612fe5565b82525050565b612b30612b2b82612fe5565b6130ce565b82525050565b612b3f81612fef565b82525050565b6000612b518285612820565b601482019150612b618284612b1f565b6020820191508190509392505050565b6000612b7d828561293b565b9150612b89828461293b565b91508190509392505050565b6000602082019050612baa6000830184612811565b92915050565b60006020820190508181036000830152612bca8184612837565b905092915050565b60006020820190508181036000830152612bec8184612895565b905092915050565b6000602082019050612c0960008301846128f3565b92915050565b60006020820190508181036000830152612c298184612902565b905092915050565b60006020820190508181036000830152612c4a8161296c565b9050919050565b60006020820190508181036000830152612c6a8161298f565b9050919050565b60006020820190508181036000830152612c8a816129b2565b9050919050565b60006020820190508181036000830152612caa816129d5565b9050919050565b60006020820190508181036000830152612cca816129f8565b9050919050565b60006020820190508181036000830152612cea81612a1b565b9050919050565b60006020820190508181036000830152612d0a81612a3e565b9050919050565b60006020820190508181036000830152612d2a81612a61565b9050919050565b60006020820190508181036000830152612d4a81612a84565b9050919050565b60006020820190508181036000830152612d6a81612aa7565b9050919050565b60006020820190508181036000830152612d8a81612aca565b9050919050565b60006020820190508181036000830152612daa81612aed565b9050919050565b6000602082019050612dc66000830184612b10565b92915050565b6000602082019050612de16000830184612b36565b92915050565b6000819050602082019050919050565b6000819050602082019050919050565b600081519050919050565b600081519050919050565b600081519050919050565b6000602082019050919050565b6000602082019050919050565b600082825260208201905092915050565b600082825260208201905092915050565b600082825260208201905092915050565b600081905092915050565b6000612e8b82612fe5565b9150612e9683612fe5565b9250827fffffffffffffffffffffffffffffffffffffffffffffffffffffffffffffffff03821115612ecb57612eca613109565b5b828201905092915050565b6000612ee182612fe5565b9150612eec83612fe5565b925082612efc57612efb613138565b5b828204905092915050565b6000612f1282612fe5565b9150612f1d83612fe5565b9250817fffffffffffffffffffffffffffffffffffffffffffffffffffffffffffffffff0483118215151615612f5657612f55613109565b5b828202905092915050565b6000612f6c82612fe5565b9150612f7783612fe5565b925082821015612f8a57612f89613109565b5b828203905092915050565b6000612fa082612fc5565b9050919050565b6000612fb282612fc5565b9050919050565b60008115159050919050565b600073ffffffffffffffffffffffffffffffffffffffff82169050919050565b6000819050919050565b600060ff82169050919050565b60005b8381101561301a578082015181840152602081019050612fff565b83811115613029576000848401525b50505050565b6000600282049050600182168061304757607f821691505b6020821081141561305b5761305a613167565b5b50919050565b600061306c82612fe5565b91507fffffffffffffffffffffffffffffffffffffffffffffffffffffffffffffffff82141561309f5761309e613109565b5b600182019050919050565b60006130b5826130bc565b9050919050565b60006130c78261320a565b9050919050565b6000819050919050565b60006130e382612fe5565b91506130ee83612fe5565b9250826130fe576130fd613138565b5b828206905092915050565b7f4e487b7100000000000000000000000000000000000000000000000000000000600052601160045260246000fd5b7f4e487b7100000000000000000000000000000000000000000000000000000000600052601260045260246000fd5b7f4e487b7100000000000000000000000000000000000000000000000000000000600052602260045260246000fd5b7f4e487b7100000000000000000000000000000000000000000000000000000000600052603260045260246000fd5b7f4e487b7100000000000000000000000000000000000000000000000000000000600052604160045260246000fd5b600080fd5b6000601f19601f8301169050919050565b60008160601b9050919050565b7f617070726f76652063616c6c6572206973206e6f74206f776e6572206e6f722060008201527f617070726f76656420666f7220616c6c00000000000000000000000000000000602082015250565b7f55524920717565727920666f72206e6f6e6578697374656e7420746f6b656e00600082015250565b7f5468697320746f6b656e20646f6e742068617665206f776e6572000000000000600082015250565b7f62616c616e636520717565727920666f7220746865207a65726f20616464726560008201527f7373000000000000000000000000000000000000000000000000000000000000602082015250565b7f7472616e736665722066726f6d20746865207a65726f20616464726573730000600082015250565b7f7472616e7366657220746f20746865207a65726f206164647265737300000000600082015250565b7f617070726f76616c20746f2063757272656e74206f776e657200000000000000600082015250565b7f7472616e7366657220616d6f756e7420657863656564732062616c616e636500600082015250565b7f6e6f7420656e6f75676820746f6b656e73000000000000000000000000000000600082015250565b7f7472616e736665722063616c6c6572206973206e6f74206f776e6572206e6f7260008201527f20617070726f7665640000000000000000000000000000000000000000000000602082015250565b7f746f206c6f7720616d6f756e7400000000000000000000000000000000000000600082015250565b7f4572726f72000000000000000000000000000000000000000000000000000000600082015250565b61347e81612f95565b811461348957600080fd5b50565b61349581612fb9565b81146134a057600080fd5b50565b6134ac81612fe5565b81146134b757600080fd5b5056fe68747470733a2f2f676174657761792e70696e6174612e636c6f75642f697066732f516d6542796b716441366632534d794474356e6e6b58686159725150764e55366f6a4d397a5372383176655246652fa26469706673582212201334179f90cdd70903613f7b5a6d16cab7beabcddba497098c690309db88ea6c64736f6c63430008070033",
  "linkReferences": {},
  "deployedLinkReferences": {}
}