{
  "_format": "hh-sol-artifact-1",
  "contractName": "Lottery",
  "sourceName": "contracts/MyLotteryZanozin.sol",
  "abi": [
    {
      "inputs": [
        {
          "internalType": "address",
          "name": "ERC20",
          "type": "address"
        }
      ],
      "stateMutability": "nonpayable",
      "type": "constructor"
    },
    {
      "inputs": [
        {
          "internalType": "address",
          "name": "to",
          "type": "address"
        },
        {
          "internalType": "uint256",
          "name": "tokenId",
          "type": "uint256"
        }
      ],
      "name": "approveNFT",
      "outputs": [],
      "stateMutability": "nonpayable",
      "type": "function"
    },
    {
      "inputs": [],
      "name": "balanceOfETH",
      "outputs": [
        {
          "internalType": "uint256",
          "name": "",
          "type": "uint256"
        }
      ],
      "stateMutability": "view",
      "type": "function"
    },
    {
      "inputs": [
        {
          "internalType": "address",
          "name": "owner",
          "type": "address"
        }
      ],
      "name": "balanceOfNFT",
      "outputs": [
        {
          "internalType": "uint256",
          "name": "",
          "type": "uint256"
        }
      ],
      "stateMutability": "view",
      "type": "function"
    },
    {
      "inputs": [],
      "name": "bankOfLottery",
      "outputs": [
        {
          "internalType": "uint256",
          "name": "",
          "type": "uint256"
        }
      ],
      "stateMutability": "view",
      "type": "function"
    },
    {
      "inputs": [
        {
          "internalType": "uint256",
          "name": "amount",
          "type": "uint256"
        }
      ],
      "name": "buyTicketByTokens",
      "outputs": [],
      "stateMutability": "nonpayable",
      "type": "function"
    },
    {
      "inputs": [
        {
          "internalType": "address",
          "name": "to",
          "type": "address"
        },
        {
          "internalType": "uint256",
          "name": "amountTokens",
          "type": "uint256"
        }
      ],
      "name": "buyTokens",
      "outputs": [],
      "stateMutability": "payable",
      "type": "function"
    },
    {
      "inputs": [
        {
          "internalType": "address",
          "name": "_owner",
          "type": "address"
        }
      ],
      "name": "callBalanceOfERC20",
      "outputs": [
        {
          "internalType": "uint256",
          "name": "",
          "type": "uint256"
        }
      ],
      "stateMutability": "view",
      "type": "function"
    },
    {
      "inputs": [],
      "name": "erc20Connect",
      "outputs": [
        {
          "internalType": "address",
          "name": "",
          "type": "address"
        }
      ],
      "stateMutability": "view",
      "type": "function"
    },
    {
      "inputs": [
        {
          "internalType": "uint256",
          "name": "tokenId",
          "type": "uint256"
        }
      ],
      "name": "getApprovedNFT",
      "outputs": [
        {
          "internalType": "address",
          "name": "operator",
          "type": "address"
        }
      ],
      "stateMutability": "view",
      "type": "function"
    },
    {
      "inputs": [
        {
          "internalType": "address",
          "name": "_owner",
          "type": "address"
        },
        {
          "internalType": "address",
          "name": "_operator",
          "type": "address"
        }
      ],
      "name": "isApprovedForAll",
      "outputs": [
        {
          "internalType": "bool",
          "name": "operatorApprove",
          "type": "bool"
        }
      ],
      "stateMutability": "view",
      "type": "function"
    },
    {
      "inputs": [],
      "name": "lastWinner",
      "outputs": [
        {
          "internalType": "address[]",
          "name": "",
          "type": "address[]"
        }
      ],
      "stateMutability": "view",
      "type": "function"
    },
    {
      "inputs": [],
      "name": "membersOfLottery",
      "outputs": [
        {
          "internalType": "address payable[]",
          "name": "",
          "type": "address[]"
        }
      ],
      "stateMutability": "view",
      "type": "function"
    },
    {
      "inputs": [],
      "name": "myTicket",
      "outputs": [
        {
          "internalType": "uint256",
          "name": "",
          "type": "uint256"
        }
      ],
      "stateMutability": "view",
      "type": "function"
    },
    {
      "inputs": [],
      "name": "nameNFT",
      "outputs": [
        {
          "internalType": "string",
          "name": "",
          "type": "string"
        }
      ],
      "stateMutability": "view",
      "type": "function"
    },
    {
      "inputs": [],
      "name": "nftTotalSupply",
      "outputs": [
        {
          "internalType": "uint256",
          "name": "",
          "type": "uint256"
        }
      ],
      "stateMutability": "view",
      "type": "function"
    },
    {
      "inputs": [],
      "name": "numberOfMembers",
      "outputs": [
        {
          "internalType": "uint256",
          "name": "",
          "type": "uint256"
        }
      ],
      "stateMutability": "view",
      "type": "function"
    },
    {
      "inputs": [],
      "name": "owner",
      "outputs": [
        {
          "internalType": "address",
          "name": "",
          "type": "address"
        }
      ],
      "stateMutability": "view",
      "type": "function"
    },
    {
      "inputs": [
        {
          "internalType": "uint256",
          "name": "tokenId",
          "type": "uint256"
        }
      ],
      "name": "ownerOf",
      "outputs": [
        {
          "internalType": "address",
          "name": "",
          "type": "address"
        }
      ],
      "stateMutability": "view",
      "type": "function"
    },
    {
      "inputs": [],
      "name": "pickWinner",
      "outputs": [],
      "stateMutability": "nonpayable",
      "type": "function"
    },
    {
      "inputs": [
        {
          "internalType": "address",
          "name": "_owner",
          "type": "address"
        },
        {
          "internalType": "address",
          "name": "_operator",
          "type": "address"
        },
        {
          "internalType": "bool",
          "name": "_approved",
          "type": "bool"
        }
      ],
      "name": "setApprovalForAll",
      "outputs": [],
      "stateMutability": "nonpayable",
      "type": "function"
    },
    {
      "inputs": [],
      "name": "symbolNFT",
      "outputs": [
        {
          "internalType": "string",
          "name": "",
          "type": "string"
        }
      ],
      "stateMutability": "view",
      "type": "function"
    },
    {
      "inputs": [
        {
          "internalType": "uint256",
          "name": "tokenId",
          "type": "uint256"
        }
      ],
      "name": "tokenURI",
      "outputs": [
        {
          "internalType": "string",
          "name": "",
          "type": "string"
        }
      ],
      "stateMutability": "view",
      "type": "function"
    },
    {
      "inputs": [
        {
          "internalType": "address",
          "name": "from",
          "type": "address"
        },
        {
          "internalType": "address",
          "name": "to",
          "type": "address"
        },
        {
          "internalType": "uint256",
          "name": "tokenId",
          "type": "uint256"
        }
      ],
      "name": "transferFromNFT",
      "outputs": [],
      "stateMutability": "nonpayable",
      "type": "function"
    }
  ],
  "bytecode": "0x60806040526040518060400160405280600981526020017f5469636b65744e4654000000000000000000000000000000000000000000000081525060009080519060200190620000519291906200015c565b506040518060400160405280600381526020017f54544e0000000000000000000000000000000000000000000000000000000000815250600190805190602001906200009f9291906200015c565b5033600c60006101000a81548173ffffffffffffffffffffffffffffffffffffffff021916908373ffffffffffffffffffffffffffffffffffffffff160217905550348015620000ee57600080fd5b506040516200325438038062003254833981810160405281019062000114919062000223565b80600e60006101000a81548173ffffffffffffffffffffffffffffffffffffffff021916908373ffffffffffffffffffffffffffffffffffffffff160217905550506200030d565b8280546200016a9062000289565b90600052602060002090601f0160209004810192826200018e5760008555620001da565b82601f10620001a957805160ff1916838001178555620001da565b82800160010185558215620001da579182015b82811115620001d9578251825591602001919060010190620001bc565b5b509050620001e99190620001ed565b5090565b5b8082111562000208576000816000905550600101620001ee565b5090565b6000815190506200021d81620002f3565b92915050565b6000602082840312156200023c576200023b620002ee565b5b60006200024c848285016200020c565b91505092915050565b6000620002628262000269565b9050919050565b600073ffffffffffffffffffffffffffffffffffffffff82169050919050565b60006002820490506001821680620002a257607f821691505b60208210811415620002b957620002b8620002bf565b5b50919050565b7f4e487b7100000000000000000000000000000000000000000000000000000000600052602260045260246000fd5b600080fd5b620002fe8162000255565b81146200030a57600080fd5b50565b612f37806200031d6000396000f3fe6080604052600436106101405760003560e01c80638da5cb5b116100b6578063c3b1cd891161006f578063c3b1cd891461042b578063c87b56dd14610456578063c9ba55ff14610493578063e985e9c5146104be578063f5b100ea146104fb578063fe1881841461053857610140565b80638da5cb5b1461032d5780638ea5b802146103585780639600dd83146103835780639a295ed3146103ac5780639b302c25146103d5578063a30e3fa91461040057610140565b806327ef54951161010857806327ef54951461020b578063329ef94c1461024857806334fe9a7114610273578063367605ca146102b05780635d495aea146102d95780636352211e146102f057610140565b80630752881a146101455780630803a3e3146101615780630bb237841461018c57806310c88a69146101b7578063129763c2146101e2575b600080fd5b61015f600480360381019061015a91906122d9565b610563565b005b34801561016d57600080fd5b50610176610616565b60405161018391906127ad565b60405180910390f35b34801561019857600080fd5b506101a16106a8565b6040516101ae919061288f565b60405180910390f35b3480156101c357600080fd5b506101cc6106ae565b6040516101d9919061288f565b60405180910390f35b3480156101ee57600080fd5b5061020960048036038101906102049190612286565b610760565b005b34801561021757600080fd5b50610232600480360381019061022d9190612319565b6108db565b60405161023f9190612673565b60405180910390f35b34801561025457600080fd5b5061025d610918565b60405161026a9190612770565b60405180910390f35b34801561027f57600080fd5b5061029a600480360381019061029591906121c6565b6109a6565b6040516102a7919061288f565b60405180910390f35b3480156102bc57600080fd5b506102d760048036038101906102d29190612233565b610a5a565b005b3480156102e557600080fd5b506102ee610b9f565b005b3480156102fc57600080fd5b5061031760048036038101906103129190612319565b610ef8565b6040516103249190612673565b60405180910390f35b34801561033957600080fd5b50610342610fd7565b60405161034f9190612673565b60405180910390f35b34801561036457600080fd5b5061036d610ffd565b60405161037a919061288f565b60405180910390f35b34801561038f57600080fd5b506103aa60048036038101906103a591906122d9565b61101c565b005b3480156103b857600080fd5b506103d360048036038101906103ce9190612319565b61116e565b005b3480156103e157600080fd5b506103ea6114a8565b6040516103f79190612673565b60405180910390f35b34801561040c57600080fd5b506104156114ce565b604051610422919061288f565b60405180910390f35b34801561043757600080fd5b506104406114d4565b60405161044d919061288f565b60405180910390f35b34801561046257600080fd5b5061047d60048036038101906104789190612319565b61151b565b60405161048a91906127ad565b60405180910390f35b34801561049f57600080fd5b506104a861161d565b6040516104b591906127ad565b60405180910390f35b3480156104ca57600080fd5b506104e560048036038101906104e091906121f3565b6116af565b6040516104f29190612792565b60405180910390f35b34801561050757600080fd5b50610522600480360381019061051d91906121c6565b611743565b60405161052f919061288f565b60405180910390f35b34801561054457600080fd5b5061054d6117fb565b60405161055a919061274e565b60405180910390f35b6001670de0b6b3a7640000346105799190612999565b1461058357600080fd5b600e60009054906101000a900473ffffffffffffffffffffffffffffffffffffffff1673ffffffffffffffffffffffffffffffffffffffff166379c6506883836040518363ffffffff1660e01b81526004016105e0929190612725565b600060405180830381600087803b1580156105fa57600080fd5b505af115801561060e573d6000803e3d6000fd5b505050505050565b60606001805461062590612b1b565b80601f016020809104026020016040519081016040528092919081815260200182805461065190612b1b565b801561069e5780601f106106735761010080835404028352916020019161069e565b820191906000526020600020905b81548152906001019060200180831161068157829003601f168201915b5050505050905090565b60035481565b6000600e60009054906101000a900473ffffffffffffffffffffffffffffffffffffffff1673ffffffffffffffffffffffffffffffffffffffff16632ff57da8306040518263ffffffff1660e01b815260040161070b9190612673565b60206040518083038186803b15801561072357600080fd5b505afa158015610737573d6000803e3d6000fd5b505050506040513d601f19601f8201168201806040525081019061075b9190612346565b905090565b600073ffffffffffffffffffffffffffffffffffffffff168373ffffffffffffffffffffffffffffffffffffffff16141580156107ca5750600073ffffffffffffffffffffffffffffffffffffffff168273ffffffffffffffffffffffffffffffffffffffff1614155b80156107d7575060008114155b6107e057600080fd5b6107ea3382611889565b610829576040517f08c379a00000000000000000000000000000000000000000000000000000000081526004016108209061286f565b60405180910390fd5b8173ffffffffffffffffffffffffffffffffffffffff166006600083815260200190815260200160002060009054906101000a900473ffffffffffffffffffffffffffffffffffffffff1673ffffffffffffffffffffffffffffffffffffffff161461089457600080fd5b8173ffffffffffffffffffffffffffffffffffffffff166006600083815260200190815260200160002060009054906101000a905050506108d6838383611965565b505050565b60006006600083815260200190815260200160002060009054906101000a900473ffffffffffffffffffffffffffffffffffffffff169050919050565b6060600b80548060200260200160405190810160405280929190818152602001828054801561099c57602002820191906000526020600020905b8160009054906101000a900473ffffffffffffffffffffffffffffffffffffffff1673ffffffffffffffffffffffffffffffffffffffff1681526020019060010190808311610952575b5050505050905090565b6000600e60009054906101000a900473ffffffffffffffffffffffffffffffffffffffff1673ffffffffffffffffffffffffffffffffffffffff16632ff57da8836040518263ffffffff1660e01b8152600401610a039190612673565b60206040518083038186803b158015610a1b57600080fd5b505afa158015610a2f573d6000803e3d6000fd5b505050506040513d601f19601f82011682018060405250810190610a539190612346565b9050919050565b600073ffffffffffffffffffffffffffffffffffffffff168373ffffffffffffffffffffffffffffffffffffffff1614158015610ac45750600073ffffffffffffffffffffffffffffffffffffffff168273ffffffffffffffffffffffffffffffffffffffff1614155b610acd57600080fd5b8173ffffffffffffffffffffffffffffffffffffffff168373ffffffffffffffffffffffffffffffffffffffff161415610b0657600080fd5b80600760008573ffffffffffffffffffffffffffffffffffffffff1673ffffffffffffffffffffffffffffffffffffffff16815260200190815260200160002060008473ffffffffffffffffffffffffffffffffffffffff1673ffffffffffffffffffffffffffffffffffffffff16815260200190815260200160002060006101000a81548160ff021916908315150217905550505050565b600c60009054906101000a900473ffffffffffffffffffffffffffffffffffffffff1673ffffffffffffffffffffffffffffffffffffffff163373ffffffffffffffffffffffffffffffffffffffff1614610bf957600080fd5b6002610c036106ae565b1015610c0e57600080fd5b610c16611a68565b610c1e611ade565b610c26611c0a565b6000600b80549050610c36611d95565b610c409190612bc4565b9050600e60009054906101000a900473ffffffffffffffffffffffffffffffffffffffff1673ffffffffffffffffffffffffffffffffffffffff1663e1f21c6730600b8481548110610c9557610c94612c82565b5b9060005260206000200160009054906101000a900473ffffffffffffffffffffffffffffffffffffffff16610cc86106ae565b6040518463ffffffff1660e01b8152600401610ce6939291906126b7565b600060405180830381600087803b158015610d0057600080fd5b505af1158015610d14573d6000803e3d6000fd5b50505050600e60009054906101000a900473ffffffffffffffffffffffffffffffffffffffff1673ffffffffffffffffffffffffffffffffffffffff1663a9059cbb600b8381548110610d6a57610d69612c82565b5b9060005260206000200160009054906101000a900473ffffffffffffffffffffffffffffffffffffffff16610d9d6106ae565b6040518363ffffffff1660e01b8152600401610dba92919061268e565b600060405180830381600087803b158015610dd457600080fd5b505af1158015610de8573d6000803e3d6000fd5b50505050600a600b8281548110610e0257610e01612c82565b5b9060005260206000200160009054906101000a900473ffffffffffffffffffffffffffffffffffffffff169080600181540180825580915050600190039060005260206000200160009091909190916101000a81548173ffffffffffffffffffffffffffffffffffffffff021916908373ffffffffffffffffffffffffffffffffffffffff160217905550600067ffffffffffffffff811115610ea857610ea7612cb1565b5b604051908082528060200260200182016040528015610ed65781602001602082028036833780820191505090505b50600b9080519060200190610eec9291906120cb565b506000600d8190555050565b60008073ffffffffffffffffffffffffffffffffffffffff166004600084815260200190815260200160002060009054906101000a900473ffffffffffffffffffffffffffffffffffffffff1673ffffffffffffffffffffffffffffffffffffffff161415610f9c576040517f08c379a0000000000000000000000000000000000000000000000000000000008152600401610f939061280f565b60405180910390fd5b6004600083815260200190815260200160002060009054906101000a900473ffffffffffffffffffffffffffffffffffffffff169050919050565b600c60009054906101000a900473ffffffffffffffffffffffffffffffffffffffff1681565b60003373ffffffffffffffffffffffffffffffffffffffff1631905090565b600061102782610ef8565b90508073ffffffffffffffffffffffffffffffffffffffff168373ffffffffffffffffffffffffffffffffffffffff161415611098576040517f08c379a000000000000000000000000000000000000000000000000000000000815260040161108f9061284f565b60405180910390fd5b8073ffffffffffffffffffffffffffffffffffffffff163373ffffffffffffffffffffffffffffffffffffffff1614806110d857506110d781336116af565b5b611117576040517f08c379a000000000000000000000000000000000000000000000000000000000815260040161110e906127cf565b60405180910390fd5b826006600084815260200190815260200160002060006101000a81548173ffffffffffffffffffffffffffffffffffffffff021916908373ffffffffffffffffffffffffffffffffffffffff160217905550505050565b600a600d541080156111805750600181145b801561123657506001600e60009054906101000a900473ffffffffffffffffffffffffffffffffffffffff1673ffffffffffffffffffffffffffffffffffffffff16632ff57da8336040518263ffffffff1660e01b81526004016111e49190612673565b60206040518083038186803b1580156111fc57600080fd5b505afa158015611210573d6000803e3d6000fd5b505050506040513d601f19601f820116820180604052508101906112349190612346565b145b61123f57600080fd5b600e60009054906101000a900473ffffffffffffffffffffffffffffffffffffffff1673ffffffffffffffffffffffffffffffffffffffff1663e1f21c673330846040518463ffffffff1660e01b815260040161129e939291906126ee565b600060405180830381600087803b1580156112b857600080fd5b505af11580156112cc573d6000803e3d6000fd5b5050505080600d60008282546112e29190612943565b925050819055506001600b805490506112fb9190612943565b600860003373ffffffffffffffffffffffffffffffffffffffff1673ffffffffffffffffffffffffffffffffffffffff16815260200190815260200160002060008282546113499190612943565b925050819055506001600960003373ffffffffffffffffffffffffffffffffffffffff1673ffffffffffffffffffffffffffffffffffffffff16815260200190815260200160002060008282546113a09190612943565b92505081905550600e60009054906101000a900473ffffffffffffffffffffffffffffffffffffffff1673ffffffffffffffffffffffffffffffffffffffff166323b872dd3330846040518463ffffffff1660e01b8152600401611406939291906126ee565b600060405180830381600087803b15801561142057600080fd5b505af1158015611434573d6000803e3d6000fd5b5050505061144133611dcd565b50600b339080600181540180825580915050600190039060005260206000200160009091909190916101000a81548173ffffffffffffffffffffffffffffffffffffffff021916908373ffffffffffffffffffffffffffffffffffffffff16021790555050565b600e60009054906101000a900473ffffffffffffffffffffffffffffffffffffffff1681565b600d5481565b6000600860003373ffffffffffffffffffffffffffffffffffffffff1673ffffffffffffffffffffffffffffffffffffffff16815260200190815260200160002054905090565b6060600073ffffffffffffffffffffffffffffffffffffffff166004600084815260200190815260200160002060009054906101000a900473ffffffffffffffffffffffffffffffffffffffff1673ffffffffffffffffffffffffffffffffffffffff1614156115c0576040517f08c379a00000000000000000000000000000000000000000000000000000000081526004016115b7906127ef565b60405180910390fd5b60006115ca611f4a565b905060008151116115ea5760405180602001604052806000815250611615565b806115f484611f6a565b60405160200161160592919061264f565b6040516020818303038152906040525b915050919050565b60606000805461162c90612b1b565b80601f016020809104026020016040519081016040528092919081815260200182805461165890612b1b565b80156116a55780601f1061167a576101008083540402835291602001916116a5565b820191906000526020600020905b81548152906001019060200180831161168857829003601f168201915b5050505050905090565b6000600760008473ffffffffffffffffffffffffffffffffffffffff1673ffffffffffffffffffffffffffffffffffffffff16815260200190815260200160002060008373ffffffffffffffffffffffffffffffffffffffff1673ffffffffffffffffffffffffffffffffffffffff16815260200190815260200160002060009054906101000a900460ff16905092915050565b60008073ffffffffffffffffffffffffffffffffffffffff168273ffffffffffffffffffffffffffffffffffffffff1614156117b4576040517f08c379a00000000000000000000000000000000000000000000000000000000081526004016117ab9061282f565b60405180910390fd5b600560008373ffffffffffffffffffffffffffffffffffffffff1673ffffffffffffffffffffffffffffffffffffffff168152602001908152602001600020549050919050565b6060600a80548060200260200160405190810160405280929190818152602001828054801561187f57602002820191906000526020600020905b8160009054906101000a900473ffffffffffffffffffffffffffffffffffffffff1673ffffffffffffffffffffffffffffffffffffffff1681526020019060010190808311611835575b5050505050905090565b60008073ffffffffffffffffffffffffffffffffffffffff168373ffffffffffffffffffffffffffffffffffffffff16141580156118c8575060008214155b6118d157600080fd5b60006118dc83610ef8565b90508373ffffffffffffffffffffffffffffffffffffffff168173ffffffffffffffffffffffffffffffffffffffff16148061194b57508373ffffffffffffffffffffffffffffffffffffffff16611933846108db565b73ffffffffffffffffffffffffffffffffffffffff16145b8061195c575061195b81856116af565b5b91505092915050565b80600560008573ffffffffffffffffffffffffffffffffffffffff1673ffffffffffffffffffffffffffffffffffffffff16815260200190815260200160002060008282546119b49190612a24565b9250508190555080600560008473ffffffffffffffffffffffffffffffffffffffff1673ffffffffffffffffffffffffffffffffffffffff1681526020019081526020016000206000828254611a0a9190612943565b92505081905550816004600083815260200190815260200160002060006101000a81548173ffffffffffffffffffffffffffffffffffffffff021916908373ffffffffffffffffffffffffffffffffffffffff160217905550505050565b60005b600354811015611adb5760006004600083815260200190815260200160002060006101000a81548173ffffffffffffffffffffffffffffffffffffffff021916908373ffffffffffffffffffffffffffffffffffffffff1602179055508080611ad390612b4d565b915050611a6b565b50565b60005b600b80549050811015611c0757600060086000600b8481548110611b0857611b07612c82565b5b9060005260206000200160009054906101000a900473ffffffffffffffffffffffffffffffffffffffff1673ffffffffffffffffffffffffffffffffffffffff1673ffffffffffffffffffffffffffffffffffffffff16815260200190815260200160002081905550600060096000600b8481548110611b8b57611b8a612c82565b5b9060005260206000200160009054906101000a900473ffffffffffffffffffffffffffffffffffffffff1673ffffffffffffffffffffffffffffffffffffffff1673ffffffffffffffffffffffffffffffffffffffff168152602001908152602001600020819055508080611bff90612b4d565b915050611ae1565b50565b60006064611c166106ae565b600a611c2291906129ca565b611c2c9190612999565b9050600e60009054906101000a900473ffffffffffffffffffffffffffffffffffffffff1673ffffffffffffffffffffffffffffffffffffffff1663e1f21c6730600c60009054906101000a900473ffffffffffffffffffffffffffffffffffffffff16846040518463ffffffff1660e01b8152600401611caf939291906126ee565b600060405180830381600087803b158015611cc957600080fd5b505af1158015611cdd573d6000803e3d6000fd5b50505050600e60009054906101000a900473ffffffffffffffffffffffffffffffffffffffff1673ffffffffffffffffffffffffffffffffffffffff1663a9059cbb600c60009054906101000a900473ffffffffffffffffffffffffffffffffffffffff16836040518363ffffffff1660e01b8152600401611d60929190612725565b600060405180830381600087803b158015611d7a57600080fd5b505af1158015611d8e573d6000803e3d6000fd5b5050505050565b6000803390508042604051602001611dae929190612623565b6040516020818303038152906040528051906020012060001c91505090565b6000600260008154611dde90612b4d565b91905081905550600073ffffffffffffffffffffffffffffffffffffffff168273ffffffffffffffffffffffffffffffffffffffff1614158015611e255750600060025414155b611e2e57600080fd5b6001600560008473ffffffffffffffffffffffffffffffffffffffff1673ffffffffffffffffffffffffffffffffffffffff1681526020019081526020016000205410611e7a57600080fd5b600254600560008473ffffffffffffffffffffffffffffffffffffffff1673ffffffffffffffffffffffffffffffffffffffff1681526020019081526020016000206000828254611ecb9190612943565b925050819055508160046000600254815260200190815260200160002060006101000a81548173ffffffffffffffffffffffffffffffffffffffff021916908373ffffffffffffffffffffffffffffffffffffffff160217905550600160036000828254611f399190612943565b925050819055506002549050919050565b6060604051806080016040528060518152602001612eb160519139905090565b60606000821415611fb2576040518060400160405280600181526020017f300000000000000000000000000000000000000000000000000000000000000081525090506120c6565b600082905060005b60008214611fe4578080611fcd90612b4d565b915050600a82611fdd9190612999565b9150611fba565b60008167ffffffffffffffff81111561200057611fff612cb1565b5b6040519080825280601f01601f1916602001820160405280156120325781602001600182028036833780820191505090505b5090505b600085146120bf5760018261204b9190612a24565b9150600a8561205a9190612bc4565b60306120669190612943565b60f81b81838151811061207c5761207b612c82565b5b60200101907effffffffffffffffffffffffffffffffffffffffffffffffffffffffffffff1916908160001a905350600a856120b89190612999565b9450612036565b8093505050505b919050565b828054828255906000526020600020908101928215612144579160200282015b828111156121435782518260006101000a81548173ffffffffffffffffffffffffffffffffffffffff021916908373ffffffffffffffffffffffffffffffffffffffff160217905550916020019190600101906120eb565b5b5090506121519190612155565b5090565b5b8082111561216e576000816000905550600101612156565b5090565b60008135905061218181612e6b565b92915050565b60008135905061219681612e82565b92915050565b6000813590506121ab81612e99565b92915050565b6000815190506121c081612e99565b92915050565b6000602082840312156121dc576121db612ce0565b5b60006121ea84828501612172565b91505092915050565b6000806040838503121561220a57612209612ce0565b5b600061221885828601612172565b925050602061222985828601612172565b9150509250929050565b60008060006060848603121561224c5761224b612ce0565b5b600061225a86828701612172565b935050602061226b86828701612172565b925050604061227c86828701612187565b9150509250925092565b60008060006060848603121561229f5761229e612ce0565b5b60006122ad86828701612172565b93505060206122be86828701612172565b92505060406122cf8682870161219c565b9150509250925092565b600080604083850312156122f0576122ef612ce0565b5b60006122fe85828601612172565b925050602061230f8582860161219c565b9150509250929050565b60006020828403121561232f5761232e612ce0565b5b600061233d8482850161219c565b91505092915050565b60006020828403121561235c5761235b612ce0565b5b600061236a848285016121b1565b91505092915050565b600061237f83836123b2565b60208301905092915050565b600061239783836123c1565b60208301905092915050565b6123ac81612ab2565b82525050565b6123bb81612a6a565b82525050565b6123ca81612a58565b82525050565b6123d981612a58565b82525050565b6123f06123eb82612a58565b612b96565b82525050565b6000612401826128ca565b61240b8185612905565b9350612416836128aa565b8060005b8381101561244757815161242e888261238b565b9750612439836128eb565b92505060018101905061241a565b5085935050505092915050565b600061245f826128d5565b6124698185612916565b9350612474836128ba565b8060005b838110156124a557815161248c8882612373565b9750612497836128f8565b925050600181019050612478565b5085935050505092915050565b6124bb81612a7c565b82525050565b60006124cc826128e0565b6124d68185612927565b93506124e6818560208601612ae8565b6124ef81612ce5565b840191505092915050565b6000612505826128e0565b61250f8185612938565b935061251f818560208601612ae8565b80840191505092915050565b6000612538603083612927565b915061254382612d03565b604082019050919050565b600061255b601f83612927565b915061256682612d52565b602082019050919050565b600061257e601a83612927565b915061258982612d7b565b602082019050919050565b60006125a1602283612927565b91506125ac82612da4565b604082019050919050565b60006125c4601983612927565b91506125cf82612df3565b602082019050919050565b60006125e7602983612927565b91506125f282612e1c565b604082019050919050565b61260681612aa8565b82525050565b61261d61261882612aa8565b612bba565b82525050565b600061262f82856123df565b60148201915061263f828461260c565b6020820191508190509392505050565b600061265b82856124fa565b915061266782846124fa565b91508190509392505050565b600060208201905061268860008301846123d0565b92915050565b60006040820190506126a360008301856123a3565b6126b060208301846125fd565b9392505050565b60006060820190506126cc60008301866123d0565b6126d960208301856123a3565b6126e660408301846125fd565b949350505050565b600060608201905061270360008301866123d0565b61271060208301856123d0565b61271d60408301846125fd565b949350505050565b600060408201905061273a60008301856123d0565b61274760208301846125fd565b9392505050565b6000602082019050818103600083015261276881846123f6565b905092915050565b6000602082019050818103600083015261278a8184612454565b905092915050565b60006020820190506127a760008301846124b2565b92915050565b600060208201905081810360008301526127c781846124c1565b905092915050565b600060208201905081810360008301526127e88161252b565b9050919050565b600060208201905081810360008301526128088161254e565b9050919050565b6000602082019050818103600083015261282881612571565b9050919050565b6000602082019050818103600083015261284881612594565b9050919050565b60006020820190508181036000830152612868816125b7565b9050919050565b60006020820190508181036000830152612888816125da565b9050919050565b60006020820190506128a460008301846125fd565b92915050565b6000819050602082019050919050565b6000819050602082019050919050565b600081519050919050565b600081519050919050565b600081519050919050565b6000602082019050919050565b6000602082019050919050565b600082825260208201905092915050565b600082825260208201905092915050565b600082825260208201905092915050565b600081905092915050565b600061294e82612aa8565b915061295983612aa8565b9250827fffffffffffffffffffffffffffffffffffffffffffffffffffffffffffffffff0382111561298e5761298d612bf5565b5b828201905092915050565b60006129a482612aa8565b91506129af83612aa8565b9250826129bf576129be612c24565b5b828204905092915050565b60006129d582612aa8565b91506129e083612aa8565b9250817fffffffffffffffffffffffffffffffffffffffffffffffffffffffffffffffff0483118215151615612a1957612a18612bf5565b5b828202905092915050565b6000612a2f82612aa8565b9150612a3a83612aa8565b925082821015612a4d57612a4c612bf5565b5b828203905092915050565b6000612a6382612a88565b9050919050565b6000612a7582612a88565b9050919050565b60008115159050919050565b600073ffffffffffffffffffffffffffffffffffffffff82169050919050565b6000819050919050565b6000612abd82612ac4565b9050919050565b6000612acf82612ad6565b9050919050565b6000612ae182612a88565b9050919050565b60005b83811015612b06578082015181840152602081019050612aeb565b83811115612b15576000848401525b50505050565b60006002820490506001821680612b3357607f821691505b60208210811415612b4757612b46612c53565b5b50919050565b6000612b5882612aa8565b91507fffffffffffffffffffffffffffffffffffffffffffffffffffffffffffffffff821415612b8b57612b8a612bf5565b5b600182019050919050565b6000612ba182612ba8565b9050919050565b6000612bb382612cf6565b9050919050565b6000819050919050565b6000612bcf82612aa8565b9150612bda83612aa8565b925082612bea57612be9612c24565b5b828206905092915050565b7f4e487b7100000000000000000000000000000000000000000000000000000000600052601160045260246000fd5b7f4e487b7100000000000000000000000000000000000000000000000000000000600052601260045260246000fd5b7f4e487b7100000000000000000000000000000000000000000000000000000000600052602260045260246000fd5b7f4e487b7100000000000000000000000000000000000000000000000000000000600052603260045260246000fd5b7f4e487b7100000000000000000000000000000000000000000000000000000000600052604160045260246000fd5b600080fd5b6000601f19601f8301169050919050565b60008160601b9050919050565b7f617070726f76652063616c6c6572206973206e6f74206f776e6572206e6f722060008201527f617070726f76656420666f7220616c6c00000000000000000000000000000000602082015250565b7f55524920717565727920666f72206e6f6e6578697374656e7420746f6b656e00600082015250565b7f5468697320746f6b656e20646f6e742068617665206f776e6572000000000000600082015250565b7f62616c616e636520717565727920666f7220746865207a65726f20616464726560008201527f7373000000000000000000000000000000000000000000000000000000000000602082015250565b7f617070726f76616c20746f2063757272656e74206f776e657200000000000000600082015250565b7f7472616e736665722063616c6c6572206973206e6f74206f776e6572206e6f7260008201527f20617070726f7665640000000000000000000000000000000000000000000000602082015250565b612e7481612a58565b8114612e7f57600080fd5b50565b612e8b81612a7c565b8114612e9657600080fd5b50565b612ea281612aa8565b8114612ead57600080fd5b5056fe68747470733a2f2f676174657761792e70696e6174612e636c6f75642f697066732f516d6542796b716441366632534d794474356e6e6b58686159725150764e55366f6a4d397a5372383176655246652fa26469706673582212207ddf7c553bd1e89388fb923cdf01aed50bb615f4e2ff766e9a78cd17590ae0b264736f6c63430008070033",
  "linkReferences": {},
  "deployedLinkReferences": {}
}