{
  "_format": "hh-sol-artifact-1",
  "contractName": "Lottery",
  "sourceName": "contracts/MyLotteryZanozin.sol",
  "abi": [
    {
      "inputs": [
        {
          "internalType": "address",
          "name": "_owner",
          "type": "address"
        },
        {
          "internalType": "address",
          "name": "_spender",
          "type": "address"
        }
      ],
      "name": "allowance",
      "outputs": [
        {
          "internalType": "uint256",
          "name": "",
          "type": "uint256"
        }
      ],
      "stateMutability": "view",
      "type": "function"
    },
    {
      "inputs": [
        {
          "internalType": "address",
          "name": "_owner",
          "type": "address"
        },
        {
          "internalType": "address",
          "name": "_spender",
          "type": "address"
        },
        {
          "internalType": "uint256",
          "name": "_amount",
          "type": "uint256"
        }
      ],
      "name": "approve",
      "outputs": [],
      "stateMutability": "nonpayable",
      "type": "function"
    },
    {
      "inputs": [
        {
          "internalType": "address",
          "name": "to",
          "type": "address"
        },
        {
          "internalType": "uint256",
          "name": "tokenId",
          "type": "uint256"
        }
      ],
      "name": "approveNFT",
      "outputs": [],
      "stateMutability": "nonpayable",
      "type": "function"
    },
    {
      "inputs": [],
      "name": "balanceOfETH",
      "outputs": [
        {
          "internalType": "uint256",
          "name": "",
          "type": "uint256"
        }
      ],
      "stateMutability": "view",
      "type": "function"
    },
    {
      "inputs": [
        {
          "internalType": "address",
          "name": "owner",
          "type": "address"
        }
      ],
      "name": "balanceOfNFT",
      "outputs": [
        {
          "internalType": "uint256",
          "name": "",
          "type": "uint256"
        }
      ],
      "stateMutability": "view",
      "type": "function"
    },
    {
      "inputs": [
        {
          "internalType": "address",
          "name": "_account",
          "type": "address"
        }
      ],
      "name": "balanceOfTokens",
      "outputs": [
        {
          "internalType": "uint256",
          "name": "",
          "type": "uint256"
        }
      ],
      "stateMutability": "view",
      "type": "function"
    },
    {
      "inputs": [],
      "name": "bankOfLottery",
      "outputs": [
        {
          "internalType": "uint256",
          "name": "",
          "type": "uint256"
        }
      ],
      "stateMutability": "view",
      "type": "function"
    },
    {
      "inputs": [
        {
          "internalType": "uint256",
          "name": "amount",
          "type": "uint256"
        }
      ],
      "name": "buyTicketByTokens",
      "outputs": [],
      "stateMutability": "nonpayable",
      "type": "function"
    },
    {
      "inputs": [
        {
          "internalType": "uint256",
          "name": "amountTokens",
          "type": "uint256"
        }
      ],
      "name": "buyTokens",
      "outputs": [],
      "stateMutability": "payable",
      "type": "function"
    },
    {
      "inputs": [],
      "name": "decimals",
      "outputs": [
        {
          "internalType": "uint8",
          "name": "",
          "type": "uint8"
        }
      ],
      "stateMutability": "pure",
      "type": "function"
    },
    {
      "inputs": [
        {
          "internalType": "uint256",
          "name": "tokenId",
          "type": "uint256"
        }
      ],
      "name": "getApprovedNFT",
      "outputs": [
        {
          "internalType": "address",
          "name": "operator",
          "type": "address"
        }
      ],
      "stateMutability": "view",
      "type": "function"
    },
    {
      "inputs": [
        {
          "internalType": "address",
          "name": "_owner",
          "type": "address"
        },
        {
          "internalType": "address",
          "name": "_operator",
          "type": "address"
        }
      ],
      "name": "isApprovedForAll",
      "outputs": [
        {
          "internalType": "bool",
          "name": "operatorApprove",
          "type": "bool"
        }
      ],
      "stateMutability": "view",
      "type": "function"
    },
    {
      "inputs": [],
      "name": "lastWinner",
      "outputs": [
        {
          "internalType": "address[]",
          "name": "",
          "type": "address[]"
        }
      ],
      "stateMutability": "view",
      "type": "function"
    },
    {
      "inputs": [],
      "name": "membersOfLottery",
      "outputs": [
        {
          "internalType": "address payable[]",
          "name": "",
          "type": "address[]"
        }
      ],
      "stateMutability": "view",
      "type": "function"
    },
    {
      "inputs": [],
      "name": "myTicket",
      "outputs": [
        {
          "internalType": "uint256",
          "name": "",
          "type": "uint256"
        }
      ],
      "stateMutability": "view",
      "type": "function"
    },
    {
      "inputs": [],
      "name": "name",
      "outputs": [
        {
          "internalType": "string",
          "name": "",
          "type": "string"
        }
      ],
      "stateMutability": "pure",
      "type": "function"
    },
    {
      "inputs": [],
      "name": "nameNFT",
      "outputs": [
        {
          "internalType": "string",
          "name": "",
          "type": "string"
        }
      ],
      "stateMutability": "view",
      "type": "function"
    },
    {
      "inputs": [],
      "name": "nftTotalSupply",
      "outputs": [
        {
          "internalType": "uint256",
          "name": "",
          "type": "uint256"
        }
      ],
      "stateMutability": "view",
      "type": "function"
    },
    {
      "inputs": [],
      "name": "numberOfMembers",
      "outputs": [
        {
          "internalType": "uint256",
          "name": "",
          "type": "uint256"
        }
      ],
      "stateMutability": "view",
      "type": "function"
    },
    {
      "inputs": [
        {
          "internalType": "uint256",
          "name": "tokenId",
          "type": "uint256"
        }
      ],
      "name": "ownerOf",
      "outputs": [
        {
          "internalType": "address",
          "name": "",
          "type": "address"
        }
      ],
      "stateMutability": "view",
      "type": "function"
    },
    {
      "inputs": [],
      "name": "pickWinner",
      "outputs": [],
      "stateMutability": "nonpayable",
      "type": "function"
    },
    {
      "inputs": [
        {
          "internalType": "address",
          "name": "_owner",
          "type": "address"
        },
        {
          "internalType": "address",
          "name": "_operator",
          "type": "address"
        },
        {
          "internalType": "bool",
          "name": "_approved",
          "type": "bool"
        }
      ],
      "name": "setApprovalForAll",
      "outputs": [],
      "stateMutability": "nonpayable",
      "type": "function"
    },
    {
      "inputs": [],
      "name": "symbol",
      "outputs": [
        {
          "internalType": "string",
          "name": "",
          "type": "string"
        }
      ],
      "stateMutability": "pure",
      "type": "function"
    },
    {
      "inputs": [],
      "name": "symbolNFT",
      "outputs": [
        {
          "internalType": "string",
          "name": "",
          "type": "string"
        }
      ],
      "stateMutability": "view",
      "type": "function"
    },
    {
      "inputs": [
        {
          "internalType": "uint256",
          "name": "tokenId",
          "type": "uint256"
        }
      ],
      "name": "tokenURI",
      "outputs": [
        {
          "internalType": "string",
          "name": "",
          "type": "string"
        }
      ],
      "stateMutability": "view",
      "type": "function"
    },
    {
      "inputs": [],
      "name": "totalSupply",
      "outputs": [
        {
          "internalType": "uint256",
          "name": "",
          "type": "uint256"
        }
      ],
      "stateMutability": "view",
      "type": "function"
    },
    {
      "inputs": [
        {
          "internalType": "address",
          "name": "_to",
          "type": "address"
        },
        {
          "internalType": "uint256",
          "name": "_amount",
          "type": "uint256"
        }
      ],
      "name": "transfer",
      "outputs": [],
      "stateMutability": "nonpayable",
      "type": "function"
    },
    {
      "inputs": [
        {
          "internalType": "address",
          "name": "_from",
          "type": "address"
        },
        {
          "internalType": "address",
          "name": "_to",
          "type": "address"
        },
        {
          "internalType": "uint256",
          "name": "_amount",
          "type": "uint256"
        }
      ],
      "name": "transferFrom",
      "outputs": [],
      "stateMutability": "nonpayable",
      "type": "function"
    },
    {
      "inputs": [
        {
          "internalType": "address",
          "name": "from",
          "type": "address"
        },
        {
          "internalType": "address",
          "name": "to",
          "type": "address"
        },
        {
          "internalType": "uint256",
          "name": "tokenId",
          "type": "uint256"
        }
      ],
      "name": "transferFromNFT",
      "outputs": [],
      "stateMutability": "nonpayable",
      "type": "function"
    }
  ],
  "bytecode": "0x60806040526040518060400160405280600981526020017f5469636b65744e465400000000000000000000000000000000000000000000008152506003908051906020019062000051929190620000f5565b506040518060400160405280600381526020017f54544e0000000000000000000000000000000000000000000000000000000000815250600490805190602001906200009f929190620000f5565b5033600e60006101000a81548173ffffffffffffffffffffffffffffffffffffffff021916908373ffffffffffffffffffffffffffffffffffffffff160217905550348015620000ee57600080fd5b506200020a565b8280546200010390620001a5565b90600052602060002090601f01602090048101928262000127576000855562000173565b82601f106200014257805160ff191683800117855562000173565b8280016001018555821562000173579182015b828111156200017257825182559160200191906001019062000155565b5b50905062000182919062000186565b5090565b5b80821115620001a157600081600090555060010162000187565b5090565b60006002820490506001821680620001be57607f821691505b60208210811415620001d557620001d4620001db565b5b50919050565b7f4e487b7100000000000000000000000000000000000000000000000000000000600052602260045260246000fd5b613531806200021a6000396000f3fe6080604052600436106101c25760003560e01c80636352211e116100f7578063c3b1cd8911610095578063e1f21c6711610064578063e1f21c6714610625578063e985e9c51461064e578063f5b100ea1461068b578063fe188184146106c8576101c2565b8063c3b1cd8914610555578063c87b56dd14610580578063c9ba55ff146105bd578063dd62ed3e146105e8576101c2565b80639600dd83116100d15780639600dd83146104af5780639a295ed3146104d8578063a30e3fa914610501578063a9059cbb1461052c576101c2565b80636352211e1461041c5780638ea5b8021461045957806395d89b4114610484576101c2565b806327ef549511610164578063329ef94c1161013e578063329ef94c146103955780633610724e146103c0578063367605ca146103dc5780635d495aea14610405576101c2565b806327ef5495146102f05780632ff57da81461032d578063313ce5671461036a576101c2565b806310c88a69116101a057806310c88a6914610248578063129763c21461027357806318160ddd1461029c57806323b872dd146102c7576101c2565b806306fdde03146101c75780630803a3e3146101f25780630bb237841461021d575b600080fd5b3480156101d357600080fd5b506101dc6106f3565b6040516101e99190612bff565b60405180910390f35b3480156101fe57600080fd5b50610207610730565b6040516102149190612bff565b60405180910390f35b34801561022957600080fd5b506102326107c2565b60405161023f9190612da1565b60405180910390f35b34801561025457600080fd5b5061025d6107c8565b60405161026a9190612da1565b60405180910390f35b34801561027f57600080fd5b5061029a600480360381019061029591906126f3565b6107d0565b005b3480156102a857600080fd5b506102b161094b565b6040516102be9190612da1565b60405180910390f35b3480156102d357600080fd5b506102ee60048036038101906102e991906126f3565b610955565b005b3480156102fc57600080fd5b5061031760048036038101906103129190612786565b610965565b6040516103249190612b85565b60405180910390f35b34801561033957600080fd5b50610354600480360381019061034f9190612633565b6109a2565b6040516103619190612da1565b60405180910390f35b34801561037657600080fd5b5061037f6109ea565b60405161038c9190612dbc565b60405180910390f35b3480156103a157600080fd5b506103aa6109f3565b6040516103b79190612bc2565b60405180910390f35b6103da60048036038101906103d59190612786565b610a81565b005b3480156103e857600080fd5b5061040360048036038101906103fe91906126a0565b610aae565b005b34801561041157600080fd5b5061041a610bf3565b005b34801561042857600080fd5b50610443600480360381019061043e9190612786565b610e2d565b6040516104509190612b85565b60405180910390f35b34801561046557600080fd5b5061046e610f0c565b60405161047b9190612da1565b60405180910390f35b34801561049057600080fd5b50610499610f2b565b6040516104a69190612bff565b60405180910390f35b3480156104bb57600080fd5b506104d660048036038101906104d19190612746565b610f68565b005b3480156104e457600080fd5b506104ff60048036038101906104fa9190612786565b6110ba565b005b34801561050d57600080fd5b50610516611285565b6040516105239190612da1565b60405180910390f35b34801561053857600080fd5b50610553600480360381019061054e9190612746565b61128b565b005b34801561056157600080fd5b5061056a6112a0565b6040516105779190612da1565b60405180910390f35b34801561058c57600080fd5b506105a760048036038101906105a29190612786565b6112e7565b6040516105b49190612bff565b60405180910390f35b3480156105c957600080fd5b506105d26113e9565b6040516105df9190612bff565b60405180910390f35b3480156105f457600080fd5b5061060f600480360381019061060a9190612660565b61147b565b60405161061c9190612da1565b60405180910390f35b34801561063157600080fd5b5061064c600480360381019061064791906126f3565b6115e1565b005b34801561065a57600080fd5b5061067560048036038101906106709190612660565b6117da565b6040516106829190612be4565b60405180910390f35b34801561069757600080fd5b506106b260048036038101906106ad9190612633565b61186e565b6040516106bf9190612da1565b60405180910390f35b3480156106d457600080fd5b506106dd611926565b6040516106ea9190612ba0565b60405180910390f35b60606040518060400160405280600b81526020017f4c6f7474657279436f696e000000000000000000000000000000000000000000815250905090565b60606004805461073f9061301f565b80601f016020809104026020016040519081016040528092919081815260200182805461076b9061301f565b80156107b85780601f1061078d576101008083540402835291602001916107b8565b820191906000526020600020905b81548152906001019060200180831161079b57829003601f168201915b5050505050905090565b60055481565b600047905090565b600073ffffffffffffffffffffffffffffffffffffffff168373ffffffffffffffffffffffffffffffffffffffff161415801561083a5750600073ffffffffffffffffffffffffffffffffffffffff168273ffffffffffffffffffffffffffffffffffffffff1614155b8015610847575060008114155b61085057600080fd5b61085a33826119b4565b610899576040517f08c379a000000000000000000000000000000000000000000000000000000000815260040161089090612d41565b60405180910390fd5b8173ffffffffffffffffffffffffffffffffffffffff166008600083815260200190815260200160002060009054906101000a900473ffffffffffffffffffffffffffffffffffffffff1673ffffffffffffffffffffffffffffffffffffffff161461090457600080fd5b8173ffffffffffffffffffffffffffffffffffffffff166008600083815260200190815260200160002060009054906101000a90505050610946838383611a90565b505050565b6000600254905090565b610960838383611b93565b505050565b60006008600083815260200190815260200160002060009054906101000a900473ffffffffffffffffffffffffffffffffffffffff169050919050565b60008060008373ffffffffffffffffffffffffffffffffffffffff1673ffffffffffffffffffffffffffffffffffffffff168152602001908152602001600020549050919050565b60006008905090565b6060600d805480602002602001604051908101604052809291908181526020018280548015610a7757602002820191906000526020600020905b8160009054906101000a900473ffffffffffffffffffffffffffffffffffffffff1673ffffffffffffffffffffffffffffffffffffffff1681526020019060010190808311610a2d575b5050505050905090565b6001670de0b6b3a764000034610a979190612ec6565b14610aa157600080fd5b610aab3382611e37565b50565b600073ffffffffffffffffffffffffffffffffffffffff168373ffffffffffffffffffffffffffffffffffffffff1614158015610b185750600073ffffffffffffffffffffffffffffffffffffffff168273ffffffffffffffffffffffffffffffffffffffff1614155b610b2157600080fd5b8173ffffffffffffffffffffffffffffffffffffffff168373ffffffffffffffffffffffffffffffffffffffff161415610b5a57600080fd5b80600960008573ffffffffffffffffffffffffffffffffffffffff1673ffffffffffffffffffffffffffffffffffffffff16815260200190815260200160002060008473ffffffffffffffffffffffffffffffffffffffff1673ffffffffffffffffffffffffffffffffffffffff16815260200190815260200160002060006101000a81548160ff021916908315150217905550505050565b600e60009054906101000a900473ffffffffffffffffffffffffffffffffffffffff1673ffffffffffffffffffffffffffffffffffffffff163373ffffffffffffffffffffffffffffffffffffffff1614610c4d57600080fd5b670de0b6b3a7640000610c5e6107c8565b11610c6857600080fd5b610c70611f5d565b610c78611fd3565b610c806120ff565b6000600d80549050610c9061218f565b610c9a91906130c8565b9050600d8181548110610cb057610caf613186565b5b9060005260206000200160009054906101000a900473ffffffffffffffffffffffffffffffffffffffff1673ffffffffffffffffffffffffffffffffffffffff166108fc479081150290604051600060405180830381858888f19350505050158015610d20573d6000803e3d6000fd5b50600c600d8281548110610d3757610d36613186565b5b9060005260206000200160009054906101000a900473ffffffffffffffffffffffffffffffffffffffff169080600181540180825580915050600190039060005260206000200160009091909190916101000a81548173ffffffffffffffffffffffffffffffffffffffff021916908373ffffffffffffffffffffffffffffffffffffffff160217905550600067ffffffffffffffff811115610ddd57610ddc6131b5565b5b604051908082528060200260200182016040528015610e0b5781602001602082028036833780820191505090505b50600d9080519060200190610e2192919061254d565b506000600f8190555050565b60008073ffffffffffffffffffffffffffffffffffffffff166006600084815260200190815260200160002060009054906101000a900473ffffffffffffffffffffffffffffffffffffffff1673ffffffffffffffffffffffffffffffffffffffff161415610ed1576040517f08c379a0000000000000000000000000000000000000000000000000000000008152600401610ec890612c61565b60405180910390fd5b6006600083815260200190815260200160002060009054906101000a900473ffffffffffffffffffffffffffffffffffffffff169050919050565b60003373ffffffffffffffffffffffffffffffffffffffff1631905090565b60606040518060400160405280600381526020017f4c54430000000000000000000000000000000000000000000000000000000000815250905090565b6000610f7382610e2d565b90508073ffffffffffffffffffffffffffffffffffffffff168373ffffffffffffffffffffffffffffffffffffffff161415610fe4576040517f08c379a0000000000000000000000000000000000000000000000000000000008152600401610fdb90612ce1565b60405180910390fd5b8073ffffffffffffffffffffffffffffffffffffffff163373ffffffffffffffffffffffffffffffffffffffff161480611024575061102381336117da565b5b611063576040517f08c379a000000000000000000000000000000000000000000000000000000000815260040161105a90612c21565b60405180910390fd5b826008600084815260200190815260200160002060006101000a81548173ffffffffffffffffffffffffffffffffffffffff021916908373ffffffffffffffffffffffffffffffffffffffff160217905550505050565b600a600f541080156110cc5750600181145b80156110e0575060016110de336109a2565b145b6110e957600080fd5b80600f60008282546110fb9190612e70565b925050819055506001600d805490506111149190612e70565b600a60003373ffffffffffffffffffffffffffffffffffffffff1673ffffffffffffffffffffffffffffffffffffffff16815260200190815260200160002060008282546111629190612e70565b925050819055506001600b60003373ffffffffffffffffffffffffffffffffffffffff1673ffffffffffffffffffffffffffffffffffffffff16815260200190815260200160002060008282546111b99190612e70565b92505081905550806000803373ffffffffffffffffffffffffffffffffffffffff1673ffffffffffffffffffffffffffffffffffffffff168152602001908152602001600020600082825461120e9190612f51565b9250508190555061121e336121c7565b50600d339080600181540180825580915050600190039060005260206000200160009091909190916101000a81548173ffffffffffffffffffffffffffffffffffffffff021916908373ffffffffffffffffffffffffffffffffffffffff16021790555050565b600f5481565b600033905061129b818484611b93565b505050565b6000600a60003373ffffffffffffffffffffffffffffffffffffffff1673ffffffffffffffffffffffffffffffffffffffff16815260200190815260200160002054905090565b6060600073ffffffffffffffffffffffffffffffffffffffff166006600084815260200190815260200160002060009054906101000a900473ffffffffffffffffffffffffffffffffffffffff1673ffffffffffffffffffffffffffffffffffffffff16141561138c576040517f08c379a000000000000000000000000000000000000000000000000000000000815260040161138390612c41565b60405180910390fd5b6000611396612334565b905060008151116113b657604051806020016040528060008152506113e1565b806113c084612354565b6040516020016113d1929190612b61565b6040516020818303038152906040525b915050919050565b6060600380546113f89061301f565b80601f01602080910402602001604051908101604052809291908181526020018280546114249061301f565b80156114715780601f1061144657610100808354040283529160200191611471565b820191906000526020600020905b81548152906001019060200180831161145457829003601f168201915b5050505050905090565b60008073ffffffffffffffffffffffffffffffffffffffff168373ffffffffffffffffffffffffffffffffffffffff1614156114ec576040517f08c379a00000000000000000000000000000000000000000000000000000000081526004016114e390612ca1565b60405180910390fd5b600073ffffffffffffffffffffffffffffffffffffffff168273ffffffffffffffffffffffffffffffffffffffff16141561155c576040517f08c379a000000000000000000000000000000000000000000000000000000000815260040161155390612cc1565b60405180910390fd5b600160008473ffffffffffffffffffffffffffffffffffffffff1673ffffffffffffffffffffffffffffffffffffffff16815260200190815260200160002060008373ffffffffffffffffffffffffffffffffffffffff1673ffffffffffffffffffffffffffffffffffffffff16815260200190815260200160002054905092915050565b600073ffffffffffffffffffffffffffffffffffffffff168373ffffffffffffffffffffffffffffffffffffffff161415611651576040517f08c379a000000000000000000000000000000000000000000000000000000000815260040161164890612ca1565b60405180910390fd5b600073ffffffffffffffffffffffffffffffffffffffff168273ffffffffffffffffffffffffffffffffffffffff1614156116c1576040517f08c379a00000000000000000000000000000000000000000000000000000000081526004016116b890612cc1565b60405180910390fd5b806000808573ffffffffffffffffffffffffffffffffffffffff1673ffffffffffffffffffffffffffffffffffffffff168152602001908152602001600020541015611742576040517f08c379a000000000000000000000000000000000000000000000000000000000815260040161173990612d21565b60405180910390fd5b80600160008573ffffffffffffffffffffffffffffffffffffffff1673ffffffffffffffffffffffffffffffffffffffff16815260200190815260200160002060008473ffffffffffffffffffffffffffffffffffffffff1673ffffffffffffffffffffffffffffffffffffffff16815260200190815260200160002060008282546117ce9190612e70565b92505081905550505050565b6000600960008473ffffffffffffffffffffffffffffffffffffffff1673ffffffffffffffffffffffffffffffffffffffff16815260200190815260200160002060008373ffffffffffffffffffffffffffffffffffffffff1673ffffffffffffffffffffffffffffffffffffffff16815260200190815260200160002060009054906101000a900460ff16905092915050565b60008073ffffffffffffffffffffffffffffffffffffffff168273ffffffffffffffffffffffffffffffffffffffff1614156118df576040517f08c379a00000000000000000000000000000000000000000000000000000000081526004016118d690612c81565b60405180910390fd5b600760008373ffffffffffffffffffffffffffffffffffffffff1673ffffffffffffffffffffffffffffffffffffffff168152602001908152602001600020549050919050565b6060600c8054806020026020016040519081016040528092919081815260200182805480156119aa57602002820191906000526020600020905b8160009054906101000a900473ffffffffffffffffffffffffffffffffffffffff1673ffffffffffffffffffffffffffffffffffffffff1681526020019060010190808311611960575b5050505050905090565b60008073ffffffffffffffffffffffffffffffffffffffff168373ffffffffffffffffffffffffffffffffffffffff16141580156119f3575060008214155b6119fc57600080fd5b6000611a0783610e2d565b90508373ffffffffffffffffffffffffffffffffffffffff168173ffffffffffffffffffffffffffffffffffffffff161480611a7657508373ffffffffffffffffffffffffffffffffffffffff16611a5e84610965565b73ffffffffffffffffffffffffffffffffffffffff16145b80611a875750611a8681856117da565b5b91505092915050565b80600760008573ffffffffffffffffffffffffffffffffffffffff1673ffffffffffffffffffffffffffffffffffffffff1681526020019081526020016000206000828254611adf9190612f51565b9250508190555080600760008473ffffffffffffffffffffffffffffffffffffffff1673ffffffffffffffffffffffffffffffffffffffff1681526020019081526020016000206000828254611b359190612e70565b92505081905550816006600083815260200190815260200160002060006101000a81548173ffffffffffffffffffffffffffffffffffffffff021916908373ffffffffffffffffffffffffffffffffffffffff160217905550505050565b600073ffffffffffffffffffffffffffffffffffffffff168373ffffffffffffffffffffffffffffffffffffffff161415611c03576040517f08c379a0000000000000000000000000000000000000000000000000000000008152600401611bfa90612ca1565b60405180910390fd5b600073ffffffffffffffffffffffffffffffffffffffff168273ffffffffffffffffffffffffffffffffffffffff161415611c73576040517f08c379a0000000000000000000000000000000000000000000000000000000008152600401611c6a90612cc1565b60405180910390fd5b80600160008573ffffffffffffffffffffffffffffffffffffffff1673ffffffffffffffffffffffffffffffffffffffff16815260200190815260200160002060008473ffffffffffffffffffffffffffffffffffffffff1673ffffffffffffffffffffffffffffffffffffffff168152602001908152602001600020541015611cfc57600080fd5b611d078383836124b5565b806000808573ffffffffffffffffffffffffffffffffffffffff1673ffffffffffffffffffffffffffffffffffffffff168152602001908152602001600020541015611d88576040517f08c379a0000000000000000000000000000000000000000000000000000000008152600401611d7f90612d01565b60405180910390fd5b806000808573ffffffffffffffffffffffffffffffffffffffff1673ffffffffffffffffffffffffffffffffffffffff1681526020019081526020016000206000828254611dd69190612f51565b92505081905550806000808473ffffffffffffffffffffffffffffffffffffffff1673ffffffffffffffffffffffffffffffffffffffff1681526020019081526020016000206000828254611e2b9190612e70565b92505081905550505050565b600073ffffffffffffffffffffffffffffffffffffffff168273ffffffffffffffffffffffffffffffffffffffff161415611ea7576040517f08c379a0000000000000000000000000000000000000000000000000000000008152600401611e9e90612d81565b60405180910390fd5b6000811415611eeb576040517f08c379a0000000000000000000000000000000000000000000000000000000008152600401611ee290612d61565b60405180910390fd5b806000808473ffffffffffffffffffffffffffffffffffffffff1673ffffffffffffffffffffffffffffffffffffffff1681526020019081526020016000206000828254611f399190612e70565b925050819055508060026000828254611f529190612e70565b925050819055505050565b60005b600554811015611fd05760006006600083815260200190815260200160002060006101000a81548173ffffffffffffffffffffffffffffffffffffffff021916908373ffffffffffffffffffffffffffffffffffffffff1602179055508080611fc890613051565b915050611f60565b50565b60005b600d805490508110156120fc576000600a6000600d8481548110611ffd57611ffc613186565b5b9060005260206000200160009054906101000a900473ffffffffffffffffffffffffffffffffffffffff1673ffffffffffffffffffffffffffffffffffffffff1673ffffffffffffffffffffffffffffffffffffffff168152602001908152602001600020819055506000600b6000600d84815481106120805761207f613186565b5b9060005260206000200160009054906101000a900473ffffffffffffffffffffffffffffffffffffffff1673ffffffffffffffffffffffffffffffffffffffff1673ffffffffffffffffffffffffffffffffffffffff1681526020019081526020016000208190555080806120f490613051565b915050611fd6565b50565b6000606461210b6107c8565b600a6121179190612ef7565b6121219190612ec6565b9050600e60009054906101000a900473ffffffffffffffffffffffffffffffffffffffff1673ffffffffffffffffffffffffffffffffffffffff166108fc829081150290604051600060405180830381858888f1935050505015801561218b573d6000803e3d6000fd5b5050565b60008033905080426040516020016121a8929190612b35565b6040516020818303038152906040528051906020012060001c91505090565b600080806121d490613051565b9050600073ffffffffffffffffffffffffffffffffffffffff168373ffffffffffffffffffffffffffffffffffffffff1614158015612214575060008114155b61221d57600080fd5b6001600760008573ffffffffffffffffffffffffffffffffffffffff1673ffffffffffffffffffffffffffffffffffffffff168152602001908152602001600020541061226957600080fd5b80600760008573ffffffffffffffffffffffffffffffffffffffff1673ffffffffffffffffffffffffffffffffffffffff16815260200190815260200160002060008282546122b89190612e70565b92505081905550826006600083815260200190815260200160002060006101000a81548173ffffffffffffffffffffffffffffffffffffffff021916908373ffffffffffffffffffffffffffffffffffffffff1602179055506001600560008282546123249190612e70565b9250508190555080915050919050565b60606040518060800160405280605181526020016134ab60519139905090565b6060600082141561239c576040518060400160405280600181526020017f300000000000000000000000000000000000000000000000000000000000000081525090506124b0565b600082905060005b600082146123ce5780806123b790613051565b915050600a826123c79190612ec6565b91506123a4565b60008167ffffffffffffffff8111156123ea576123e96131b5565b5b6040519080825280601f01601f19166020018201604052801561241c5781602001600182028036833780820191505090505b5090505b600085146124a9576001826124359190612f51565b9150600a8561244491906130c8565b60306124509190612e70565b60f81b81838151811061246657612465613186565b5b60200101907effffffffffffffffffffffffffffffffffffffffffffffffffffffffffffff1916908160001a905350600a856124a29190612ec6565b9450612420565b8093505050505b919050565b80600160008573ffffffffffffffffffffffffffffffffffffffff1673ffffffffffffffffffffffffffffffffffffffff16815260200190815260200160002060008473ffffffffffffffffffffffffffffffffffffffff1673ffffffffffffffffffffffffffffffffffffffff16815260200190815260200160002060008282546125419190612f51565b92505081905550505050565b8280548282559060005260206000209081019282156125c6579160200282015b828111156125c55782518260006101000a81548173ffffffffffffffffffffffffffffffffffffffff021916908373ffffffffffffffffffffffffffffffffffffffff1602179055509160200191906001019061256d565b5b5090506125d391906125d7565b5090565b5b808211156125f05760008160009055506001016125d8565b5090565b60008135905061260381613465565b92915050565b6000813590506126188161347c565b92915050565b60008135905061262d81613493565b92915050565b600060208284031215612649576126486131e4565b5b6000612657848285016125f4565b91505092915050565b60008060408385031215612677576126766131e4565b5b6000612685858286016125f4565b9250506020612696858286016125f4565b9150509250929050565b6000806000606084860312156126b9576126b86131e4565b5b60006126c7868287016125f4565b93505060206126d8868287016125f4565b92505060406126e986828701612609565b9150509250925092565b60008060006060848603121561270c5761270b6131e4565b5b600061271a868287016125f4565b935050602061272b868287016125f4565b925050604061273c8682870161261e565b9150509250925092565b6000806040838503121561275d5761275c6131e4565b5b600061276b858286016125f4565b925050602061277c8582860161261e565b9150509250929050565b60006020828403121561279c5761279b6131e4565b5b60006127aa8482850161261e565b91505092915050565b60006127bf83836127e3565b60208301905092915050565b60006127d783836127f2565b60208301905092915050565b6127ec81612f97565b82525050565b6127fb81612f85565b82525050565b61280a81612f85565b82525050565b61282161281c82612f85565b61309a565b82525050565b600061283282612df7565b61283c8185612e32565b935061284783612dd7565b8060005b8381101561287857815161285f88826127cb565b975061286a83612e18565b92505060018101905061284b565b5085935050505092915050565b600061289082612e02565b61289a8185612e43565b93506128a583612de7565b8060005b838110156128d65781516128bd88826127b3565b97506128c883612e25565b9250506001810190506128a9565b5085935050505092915050565b6128ec81612fa9565b82525050565b60006128fd82612e0d565b6129078185612e54565b9350612917818560208601612fec565b612920816131e9565b840191505092915050565b600061293682612e0d565b6129408185612e65565b9350612950818560208601612fec565b80840191505092915050565b6000612969603083612e54565b915061297482613207565b604082019050919050565b600061298c601f83612e54565b915061299782613256565b602082019050919050565b60006129af601a83612e54565b91506129ba8261327f565b602082019050919050565b60006129d2602283612e54565b91506129dd826132a8565b604082019050919050565b60006129f5601e83612e54565b9150612a00826132f7565b602082019050919050565b6000612a18601c83612e54565b9150612a2382613320565b602082019050919050565b6000612a3b601983612e54565b9150612a4682613349565b602082019050919050565b6000612a5e601f83612e54565b9150612a6982613372565b602082019050919050565b6000612a81601183612e54565b9150612a8c8261339b565b602082019050919050565b6000612aa4602983612e54565b9150612aaf826133c4565b604082019050919050565b6000612ac7600d83612e54565b9150612ad282613413565b602082019050919050565b6000612aea600583612e54565b9150612af58261343c565b602082019050919050565b612b0981612fd5565b82525050565b612b20612b1b82612fd5565b6130be565b82525050565b612b2f81612fdf565b82525050565b6000612b418285612810565b601482019150612b518284612b0f565b6020820191508190509392505050565b6000612b6d828561292b565b9150612b79828461292b565b91508190509392505050565b6000602082019050612b9a6000830184612801565b92915050565b60006020820190508181036000830152612bba8184612827565b905092915050565b60006020820190508181036000830152612bdc8184612885565b905092915050565b6000602082019050612bf960008301846128e3565b92915050565b60006020820190508181036000830152612c1981846128f2565b905092915050565b60006020820190508181036000830152612c3a8161295c565b9050919050565b60006020820190508181036000830152612c5a8161297f565b9050919050565b60006020820190508181036000830152612c7a816129a2565b9050919050565b60006020820190508181036000830152612c9a816129c5565b9050919050565b60006020820190508181036000830152612cba816129e8565b9050919050565b60006020820190508181036000830152612cda81612a0b565b9050919050565b60006020820190508181036000830152612cfa81612a2e565b9050919050565b60006020820190508181036000830152612d1a81612a51565b9050919050565b60006020820190508181036000830152612d3a81612a74565b9050919050565b60006020820190508181036000830152612d5a81612a97565b9050919050565b60006020820190508181036000830152612d7a81612aba565b9050919050565b60006020820190508181036000830152612d9a81612add565b9050919050565b6000602082019050612db66000830184612b00565b92915050565b6000602082019050612dd16000830184612b26565b92915050565b6000819050602082019050919050565b6000819050602082019050919050565b600081519050919050565b600081519050919050565b600081519050919050565b6000602082019050919050565b6000602082019050919050565b600082825260208201905092915050565b600082825260208201905092915050565b600082825260208201905092915050565b600081905092915050565b6000612e7b82612fd5565b9150612e8683612fd5565b9250827fffffffffffffffffffffffffffffffffffffffffffffffffffffffffffffffff03821115612ebb57612eba6130f9565b5b828201905092915050565b6000612ed182612fd5565b9150612edc83612fd5565b925082612eec57612eeb613128565b5b828204905092915050565b6000612f0282612fd5565b9150612f0d83612fd5565b9250817fffffffffffffffffffffffffffffffffffffffffffffffffffffffffffffffff0483118215151615612f4657612f456130f9565b5b828202905092915050565b6000612f5c82612fd5565b9150612f6783612fd5565b925082821015612f7a57612f796130f9565b5b828203905092915050565b6000612f9082612fb5565b9050919050565b6000612fa282612fb5565b9050919050565b60008115159050919050565b600073ffffffffffffffffffffffffffffffffffffffff82169050919050565b6000819050919050565b600060ff82169050919050565b60005b8381101561300a578082015181840152602081019050612fef565b83811115613019576000848401525b50505050565b6000600282049050600182168061303757607f821691505b6020821081141561304b5761304a613157565b5b50919050565b600061305c82612fd5565b91507fffffffffffffffffffffffffffffffffffffffffffffffffffffffffffffffff82141561308f5761308e6130f9565b5b600182019050919050565b60006130a5826130ac565b9050919050565b60006130b7826131fa565b9050919050565b6000819050919050565b60006130d382612fd5565b91506130de83612fd5565b9250826130ee576130ed613128565b5b828206905092915050565b7f4e487b7100000000000000000000000000000000000000000000000000000000600052601160045260246000fd5b7f4e487b7100000000000000000000000000000000000000000000000000000000600052601260045260246000fd5b7f4e487b7100000000000000000000000000000000000000000000000000000000600052602260045260246000fd5b7f4e487b7100000000000000000000000000000000000000000000000000000000600052603260045260246000fd5b7f4e487b7100000000000000000000000000000000000000000000000000000000600052604160045260246000fd5b600080fd5b6000601f19601f8301169050919050565b60008160601b9050919050565b7f617070726f76652063616c6c6572206973206e6f74206f776e6572206e6f722060008201527f617070726f76656420666f7220616c6c00000000000000000000000000000000602082015250565b7f55524920717565727920666f72206e6f6e6578697374656e7420746f6b656e00600082015250565b7f5468697320746f6b656e20646f6e742068617665206f776e6572000000000000600082015250565b7f62616c616e636520717565727920666f7220746865207a65726f20616464726560008201527f7373000000000000000000000000000000000000000000000000000000000000602082015250565b7f7472616e736665722066726f6d20746865207a65726f20616464726573730000600082015250565b7f7472616e7366657220746f20746865207a65726f206164647265737300000000600082015250565b7f617070726f76616c20746f2063757272656e74206f776e657200000000000000600082015250565b7f7472616e7366657220616d6f756e7420657863656564732062616c616e636500600082015250565b7f6e6f7420656e6f75676820746f6b656e73000000000000000000000000000000600082015250565b7f7472616e736665722063616c6c6572206973206e6f74206f776e6572206e6f7260008201527f20617070726f7665640000000000000000000000000000000000000000000000602082015250565b7f746f206c6f7720616d6f756e7400000000000000000000000000000000000000600082015250565b7f4572726f72000000000000000000000000000000000000000000000000000000600082015250565b61346e81612f85565b811461347957600080fd5b50565b61348581612fa9565b811461349057600080fd5b50565b61349c81612fd5565b81146134a757600080fd5b5056fe68747470733a2f2f676174657761792e70696e6174612e636c6f75642f697066732f516d6542796b716441366632534d794474356e6e6b58686159725150764e55366f6a4d397a5372383176655246652fa26469706673582212200cb2f86133f923bd1027179c9b822480c5d15465ed204b7961e297aae81e4f0f64736f6c63430008070033",
  "linkReferences": {},
  "deployedLinkReferences": {}
}