{
  "_format": "hh-sol-artifact-1",
  "contractName": "Lottery",
  "sourceName": "contracts/MyLottery.sol",
  "abi": [
    {
      "inputs": [
        {
          "internalType": "address",
          "name": "ERC20",
          "type": "address"
        }
      ],
      "stateMutability": "nonpayable",
      "type": "constructor"
    },
    {
      "inputs": [
        {
          "internalType": "address",
          "name": "to",
          "type": "address"
        },
        {
          "internalType": "uint256",
          "name": "tokenId",
          "type": "uint256"
        }
      ],
      "name": "approveNFT",
      "outputs": [],
      "stateMutability": "nonpayable",
      "type": "function"
    },
    {
      "inputs": [
        {
          "internalType": "address",
          "name": "owner",
          "type": "address"
        }
      ],
      "name": "balanceOfNFT",
      "outputs": [
        {
          "internalType": "uint256",
          "name": "",
          "type": "uint256"
        }
      ],
      "stateMutability": "view",
      "type": "function"
    },
    {
      "inputs": [],
      "name": "bankOfLottery",
      "outputs": [
        {
          "internalType": "uint256",
          "name": "",
          "type": "uint256"
        }
      ],
      "stateMutability": "view",
      "type": "function"
    },
    {
      "inputs": [
        {
          "internalType": "uint256",
          "name": "amount",
          "type": "uint256"
        }
      ],
      "name": "buyTicketByTokens",
      "outputs": [],
      "stateMutability": "nonpayable",
      "type": "function"
    },
    {
      "inputs": [
        {
          "internalType": "address",
          "name": "_owner",
          "type": "address"
        }
      ],
      "name": "callBalanceOfERC20",
      "outputs": [
        {
          "internalType": "uint256",
          "name": "",
          "type": "uint256"
        }
      ],
      "stateMutability": "view",
      "type": "function"
    },
    {
      "inputs": [],
      "name": "erc20Connect",
      "outputs": [
        {
          "internalType": "address",
          "name": "",
          "type": "address"
        }
      ],
      "stateMutability": "view",
      "type": "function"
    },
    {
      "inputs": [
        {
          "internalType": "uint256",
          "name": "tokenId",
          "type": "uint256"
        }
      ],
      "name": "getApprovedNFT",
      "outputs": [
        {
          "internalType": "address",
          "name": "operator",
          "type": "address"
        }
      ],
      "stateMutability": "view",
      "type": "function"
    },
    {
      "inputs": [
        {
          "internalType": "address",
          "name": "_owner",
          "type": "address"
        },
        {
          "internalType": "address",
          "name": "_operator",
          "type": "address"
        }
      ],
      "name": "isApprovedForAll",
      "outputs": [
        {
          "internalType": "bool",
          "name": "operatorApprove",
          "type": "bool"
        }
      ],
      "stateMutability": "view",
      "type": "function"
    },
    {
      "inputs": [],
      "name": "lastWinner",
      "outputs": [
        {
          "internalType": "address[]",
          "name": "",
          "type": "address[]"
        }
      ],
      "stateMutability": "view",
      "type": "function"
    },
    {
      "inputs": [],
      "name": "membersOfLottery",
      "outputs": [
        {
          "internalType": "address payable[]",
          "name": "",
          "type": "address[]"
        }
      ],
      "stateMutability": "view",
      "type": "function"
    },
    {
      "inputs": [],
      "name": "myTicket",
      "outputs": [
        {
          "internalType": "uint256",
          "name": "",
          "type": "uint256"
        }
      ],
      "stateMutability": "view",
      "type": "function"
    },
    {
      "inputs": [],
      "name": "nameNFT",
      "outputs": [
        {
          "internalType": "string",
          "name": "",
          "type": "string"
        }
      ],
      "stateMutability": "view",
      "type": "function"
    },
    {
      "inputs": [],
      "name": "nftTotalSupply",
      "outputs": [
        {
          "internalType": "uint256",
          "name": "",
          "type": "uint256"
        }
      ],
      "stateMutability": "view",
      "type": "function"
    },
    {
      "inputs": [],
      "name": "numberOfMembers",
      "outputs": [
        {
          "internalType": "uint256",
          "name": "",
          "type": "uint256"
        }
      ],
      "stateMutability": "view",
      "type": "function"
    },
    {
      "inputs": [],
      "name": "owner",
      "outputs": [
        {
          "internalType": "address",
          "name": "",
          "type": "address"
        }
      ],
      "stateMutability": "view",
      "type": "function"
    },
    {
      "inputs": [
        {
          "internalType": "uint256",
          "name": "tokenId",
          "type": "uint256"
        }
      ],
      "name": "ownerOf",
      "outputs": [
        {
          "internalType": "address",
          "name": "",
          "type": "address"
        }
      ],
      "stateMutability": "view",
      "type": "function"
    },
    {
      "inputs": [],
      "name": "pickWinner",
      "outputs": [],
      "stateMutability": "nonpayable",
      "type": "function"
    },
    {
      "inputs": [
        {
          "internalType": "address",
          "name": "_owner",
          "type": "address"
        },
        {
          "internalType": "address",
          "name": "_operator",
          "type": "address"
        },
        {
          "internalType": "bool",
          "name": "_approved",
          "type": "bool"
        }
      ],
      "name": "setApprovalForAll",
      "outputs": [],
      "stateMutability": "nonpayable",
      "type": "function"
    },
    {
      "inputs": [],
      "name": "symbolNFT",
      "outputs": [
        {
          "internalType": "string",
          "name": "",
          "type": "string"
        }
      ],
      "stateMutability": "view",
      "type": "function"
    },
    {
      "inputs": [
        {
          "internalType": "uint256",
          "name": "tokenId",
          "type": "uint256"
        }
      ],
      "name": "tokenURI",
      "outputs": [
        {
          "internalType": "string",
          "name": "",
          "type": "string"
        }
      ],
      "stateMutability": "view",
      "type": "function"
    },
    {
      "inputs": [
        {
          "internalType": "address",
          "name": "from",
          "type": "address"
        },
        {
          "internalType": "address",
          "name": "to",
          "type": "address"
        },
        {
          "internalType": "uint256",
          "name": "tokenId",
          "type": "uint256"
        }
      ],
      "name": "transferFromNFT",
      "outputs": [],
      "stateMutability": "nonpayable",
      "type": "function"
    }
  ],
  "bytecode": "0x60806040526040518060400160405280600981526020017f5469636b65744e4654000000000000000000000000000000000000000000000081525060009080519060200190620000519291906200015c565b506040518060400160405280600381526020017f54544e0000000000000000000000000000000000000000000000000000000000815250600190805190602001906200009f9291906200015c565b5033600c60006101000a81548173ffffffffffffffffffffffffffffffffffffffff021916908373ffffffffffffffffffffffffffffffffffffffff160217905550348015620000ee57600080fd5b506040516200311338038062003113833981810160405281019062000114919062000223565b80600e60006101000a81548173ffffffffffffffffffffffffffffffffffffffff021916908373ffffffffffffffffffffffffffffffffffffffff160217905550506200030d565b8280546200016a9062000289565b90600052602060002090601f0160209004810192826200018e5760008555620001da565b82601f10620001a957805160ff1916838001178555620001da565b82800160010185558215620001da579182015b82811115620001d9578251825591602001919060010190620001bc565b5b509050620001e99190620001ed565b5090565b5b8082111562000208576000816000905550600101620001ee565b5090565b6000815190506200021d81620002f3565b92915050565b6000602082840312156200023c576200023b620002ee565b5b60006200024c848285016200020c565b91505092915050565b6000620002628262000269565b9050919050565b600073ffffffffffffffffffffffffffffffffffffffff82169050919050565b60006002820490506001821680620002a257607f821691505b60208210811415620002b957620002b8620002bf565b5b50919050565b7f4e487b7100000000000000000000000000000000000000000000000000000000600052602260045260246000fd5b600080fd5b620002fe8162000255565b81146200030a57600080fd5b50565b612df6806200031d6000396000f3fe608060405234801561001057600080fd5b50600436106101375760003560e01c80638da5cb5b116100b8578063c3b1cd891161007c578063c3b1cd8914610318578063c87b56dd14610336578063c9ba55ff14610366578063e985e9c514610384578063f5b100ea146103b4578063fe188184146103e457610137565b80638da5cb5b146102865780639600dd83146102a45780639a295ed3146102c05780639b302c25146102dc578063a30e3fa9146102fa57610137565b8063329ef94c116100ff578063329ef94c146101e257806334fe9a7114610200578063367605ca146102305780635d495aea1461024c5780636352211e1461025657610137565b80630803a3e31461013c5780630bb237841461015a57806310c88a6914610178578063129763c21461019657806327ef5495146101b2575b600080fd5b610144610402565b6040516101519190612623565b60405180910390f35b610162610494565b60405161016f9190612725565b60405180910390f35b61018061049a565b60405161018d9190612725565b60405180910390f35b6101b060048036038101906101ab91906120b0565b61054c565b005b6101cc60048036038101906101c79190612143565b6106c7565b6040516101d991906124c0565b60405180910390f35b6101ea610704565b6040516101f791906125e6565b60405180910390f35b61021a60048036038101906102159190611ff0565b610792565b6040516102279190612725565b60405180910390f35b61024a6004803603810190610245919061205d565b610846565b005b61025461098b565b005b610270600480360381019061026b9190612143565b610ce3565b60405161027d91906124c0565b60405180910390f35b61028e610dc2565b60405161029b91906124c0565b60405180910390f35b6102be60048036038101906102b99190612103565b610de8565b005b6102da60048036038101906102d59190612143565b610f3a565b005b6102e46112d2565b6040516102f191906124c0565b60405180910390f35b6103026112f8565b60405161030f9190612725565b60405180910390f35b6103206112fe565b60405161032d9190612725565b60405180910390f35b610350600480360381019061034b9190612143565b611345565b60405161035d9190612623565b60405180910390f35b61036e611447565b60405161037b9190612623565b60405180910390f35b61039e6004803603810190610399919061201d565b6114d9565b6040516103ab9190612608565b60405180910390f35b6103ce60048036038101906103c99190611ff0565b61156d565b6040516103db9190612725565b60405180910390f35b6103ec611625565b6040516103f991906125c4565b60405180910390f35b606060018054610411906129b1565b80601f016020809104026020016040519081016040528092919081815260200182805461043d906129b1565b801561048a5780601f1061045f5761010080835404028352916020019161048a565b820191906000526020600020905b81548152906001019060200180831161046d57829003601f168201915b5050505050905090565b60035481565b6000600e60009054906101000a900473ffffffffffffffffffffffffffffffffffffffff1673ffffffffffffffffffffffffffffffffffffffff16632ff57da8306040518263ffffffff1660e01b81526004016104f791906124c0565b60206040518083038186803b15801561050f57600080fd5b505afa158015610523573d6000803e3d6000fd5b505050506040513d601f19601f820116820180604052508101906105479190612170565b905090565b600073ffffffffffffffffffffffffffffffffffffffff168373ffffffffffffffffffffffffffffffffffffffff16141580156105b65750600073ffffffffffffffffffffffffffffffffffffffff168273ffffffffffffffffffffffffffffffffffffffff1614155b80156105c3575060008114155b6105cc57600080fd5b6105d633826116b3565b610615576040517f08c379a000000000000000000000000000000000000000000000000000000000815260040161060c906126e5565b60405180910390fd5b8173ffffffffffffffffffffffffffffffffffffffff166006600083815260200190815260200160002060009054906101000a900473ffffffffffffffffffffffffffffffffffffffff1673ffffffffffffffffffffffffffffffffffffffff161461068057600080fd5b8173ffffffffffffffffffffffffffffffffffffffff166006600083815260200190815260200160002060009054906101000a905050506106c283838361178f565b505050565b60006006600083815260200190815260200160002060009054906101000a900473ffffffffffffffffffffffffffffffffffffffff169050919050565b6060600b80548060200260200160405190810160405280929190818152602001828054801561078857602002820191906000526020600020905b8160009054906101000a900473ffffffffffffffffffffffffffffffffffffffff1673ffffffffffffffffffffffffffffffffffffffff168152602001906001019080831161073e575b5050505050905090565b6000600e60009054906101000a900473ffffffffffffffffffffffffffffffffffffffff1673ffffffffffffffffffffffffffffffffffffffff16632ff57da8836040518263ffffffff1660e01b81526004016107ef91906124c0565b60206040518083038186803b15801561080757600080fd5b505afa15801561081b573d6000803e3d6000fd5b505050506040513d601f19601f8201168201806040525081019061083f9190612170565b9050919050565b600073ffffffffffffffffffffffffffffffffffffffff168373ffffffffffffffffffffffffffffffffffffffff16141580156108b05750600073ffffffffffffffffffffffffffffffffffffffff168273ffffffffffffffffffffffffffffffffffffffff1614155b6108b957600080fd5b8173ffffffffffffffffffffffffffffffffffffffff168373ffffffffffffffffffffffffffffffffffffffff1614156108f257600080fd5b80600760008573ffffffffffffffffffffffffffffffffffffffff1673ffffffffffffffffffffffffffffffffffffffff16815260200190815260200160002060008473ffffffffffffffffffffffffffffffffffffffff1673ffffffffffffffffffffffffffffffffffffffff16815260200190815260200160002060006101000a81548160ff021916908315150217905550505050565b600c60009054906101000a900473ffffffffffffffffffffffffffffffffffffffff1673ffffffffffffffffffffffffffffffffffffffff163373ffffffffffffffffffffffffffffffffffffffff16146109e557600080fd5b60026109ef61049a565b146109f957600080fd5b610a01611892565b610a09611908565b610a11611a34565b6000600b80549050610a21611bbf565b610a2b9190612a5a565b9050600e60009054906101000a900473ffffffffffffffffffffffffffffffffffffffff1673ffffffffffffffffffffffffffffffffffffffff1663e1f21c6730600b8481548110610a8057610a7f612b18565b5b9060005260206000200160009054906101000a900473ffffffffffffffffffffffffffffffffffffffff16610ab361049a565b6040518463ffffffff1660e01b8152600401610ad19392919061252d565b600060405180830381600087803b158015610aeb57600080fd5b505af1158015610aff573d6000803e3d6000fd5b50505050600e60009054906101000a900473ffffffffffffffffffffffffffffffffffffffff1673ffffffffffffffffffffffffffffffffffffffff1663a9059cbb600b8381548110610b5557610b54612b18565b5b9060005260206000200160009054906101000a900473ffffffffffffffffffffffffffffffffffffffff16610b8861049a565b6040518363ffffffff1660e01b8152600401610ba59291906124db565b600060405180830381600087803b158015610bbf57600080fd5b505af1158015610bd3573d6000803e3d6000fd5b50505050600a600b8281548110610bed57610bec612b18565b5b9060005260206000200160009054906101000a900473ffffffffffffffffffffffffffffffffffffffff169080600181540180825580915050600190039060005260206000200160009091909190916101000a81548173ffffffffffffffffffffffffffffffffffffffff021916908373ffffffffffffffffffffffffffffffffffffffff160217905550600067ffffffffffffffff811115610c9357610c92612b47565b5b604051908082528060200260200182016040528015610cc15781602001602082028036833780820191505090505b50600b9080519060200190610cd7929190611ef5565b506000600d8190555050565b60008073ffffffffffffffffffffffffffffffffffffffff166004600084815260200190815260200160002060009054906101000a900473ffffffffffffffffffffffffffffffffffffffff1673ffffffffffffffffffffffffffffffffffffffff161415610d87576040517f08c379a0000000000000000000000000000000000000000000000000000000008152600401610d7e90612685565b60405180910390fd5b6004600083815260200190815260200160002060009054906101000a900473ffffffffffffffffffffffffffffffffffffffff169050919050565b600c60009054906101000a900473ffffffffffffffffffffffffffffffffffffffff1681565b6000610df382610ce3565b90508073ffffffffffffffffffffffffffffffffffffffff168373ffffffffffffffffffffffffffffffffffffffff161415610e64576040517f08c379a0000000000000000000000000000000000000000000000000000000008152600401610e5b906126c5565b60405180910390fd5b8073ffffffffffffffffffffffffffffffffffffffff163373ffffffffffffffffffffffffffffffffffffffff161480610ea45750610ea381336114d9565b5b610ee3576040517f08c379a0000000000000000000000000000000000000000000000000000000008152600401610eda90612645565b60405180910390fd5b826006600084815260200190815260200160002060006101000a81548173ffffffffffffffffffffffffffffffffffffffff021916908373ffffffffffffffffffffffffffffffffffffffff160217905550505050565b600a600d54108015610f4c5750600181145b801561100257506001600e60009054906101000a900473ffffffffffffffffffffffffffffffffffffffff1673ffffffffffffffffffffffffffffffffffffffff16632ff57da8336040518263ffffffff1660e01b8152600401610fb091906124c0565b60206040518083038186803b158015610fc857600080fd5b505afa158015610fdc573d6000803e3d6000fd5b505050506040513d601f19601f820116820180604052508101906110009190612170565b145b61100b57600080fd5b6001600e60009054906101000a900473ffffffffffffffffffffffffffffffffffffffff1673ffffffffffffffffffffffffffffffffffffffff1663dd62ed3e33306040518363ffffffff1660e01b815260040161106a929190612504565b60206040518083038186803b15801561108257600080fd5b505afa158015611096573d6000803e3d6000fd5b505050506040513d601f19601f820116820180604052508101906110ba9190612170565b146110fa576040517f08c379a00000000000000000000000000000000000000000000000000000000081526004016110f190612705565b60405180910390fd5b80600d600082825461110c91906127d9565b925050819055506001600b8054905061112591906127d9565b600860003373ffffffffffffffffffffffffffffffffffffffff1673ffffffffffffffffffffffffffffffffffffffff168152602001908152602001600020600082825461117391906127d9565b925050819055506001600960003373ffffffffffffffffffffffffffffffffffffffff1673ffffffffffffffffffffffffffffffffffffffff16815260200190815260200160002060008282546111ca91906127d9565b92505081905550600e60009054906101000a900473ffffffffffffffffffffffffffffffffffffffff1673ffffffffffffffffffffffffffffffffffffffff166323b872dd3330846040518463ffffffff1660e01b815260040161123093929190612564565b600060405180830381600087803b15801561124a57600080fd5b505af115801561125e573d6000803e3d6000fd5b5050505061126b33611bf7565b50600b339080600181540180825580915050600190039060005260206000200160009091909190916101000a81548173ffffffffffffffffffffffffffffffffffffffff021916908373ffffffffffffffffffffffffffffffffffffffff16021790555050565b600e60009054906101000a900473ffffffffffffffffffffffffffffffffffffffff1681565b600d5481565b6000600860003373ffffffffffffffffffffffffffffffffffffffff1673ffffffffffffffffffffffffffffffffffffffff16815260200190815260200160002054905090565b6060600073ffffffffffffffffffffffffffffffffffffffff166004600084815260200190815260200160002060009054906101000a900473ffffffffffffffffffffffffffffffffffffffff1673ffffffffffffffffffffffffffffffffffffffff1614156113ea576040517f08c379a00000000000000000000000000000000000000000000000000000000081526004016113e190612665565b60405180910390fd5b60006113f4611d74565b90506000815111611414576040518060200160405280600081525061143f565b8061141e84611d94565b60405160200161142f92919061249c565b6040516020818303038152906040525b915050919050565b606060008054611456906129b1565b80601f0160208091040260200160405190810160405280929190818152602001828054611482906129b1565b80156114cf5780601f106114a4576101008083540402835291602001916114cf565b820191906000526020600020905b8154815290600101906020018083116114b257829003601f168201915b5050505050905090565b6000600760008473ffffffffffffffffffffffffffffffffffffffff1673ffffffffffffffffffffffffffffffffffffffff16815260200190815260200160002060008373ffffffffffffffffffffffffffffffffffffffff1673ffffffffffffffffffffffffffffffffffffffff16815260200190815260200160002060009054906101000a900460ff16905092915050565b60008073ffffffffffffffffffffffffffffffffffffffff168273ffffffffffffffffffffffffffffffffffffffff1614156115de576040517f08c379a00000000000000000000000000000000000000000000000000000000081526004016115d5906126a5565b60405180910390fd5b600560008373ffffffffffffffffffffffffffffffffffffffff1673ffffffffffffffffffffffffffffffffffffffff168152602001908152602001600020549050919050565b6060600a8054806020026020016040519081016040528092919081815260200182805480156116a957602002820191906000526020600020905b8160009054906101000a900473ffffffffffffffffffffffffffffffffffffffff1673ffffffffffffffffffffffffffffffffffffffff168152602001906001019080831161165f575b5050505050905090565b60008073ffffffffffffffffffffffffffffffffffffffff168373ffffffffffffffffffffffffffffffffffffffff16141580156116f2575060008214155b6116fb57600080fd5b600061170683610ce3565b90508373ffffffffffffffffffffffffffffffffffffffff168173ffffffffffffffffffffffffffffffffffffffff16148061177557508373ffffffffffffffffffffffffffffffffffffffff1661175d846106c7565b73ffffffffffffffffffffffffffffffffffffffff16145b80611786575061178581856114d9565b5b91505092915050565b80600560008573ffffffffffffffffffffffffffffffffffffffff1673ffffffffffffffffffffffffffffffffffffffff16815260200190815260200160002060008282546117de91906128ba565b9250508190555080600560008473ffffffffffffffffffffffffffffffffffffffff1673ffffffffffffffffffffffffffffffffffffffff168152602001908152602001600020600082825461183491906127d9565b92505081905550816004600083815260200190815260200160002060006101000a81548173ffffffffffffffffffffffffffffffffffffffff021916908373ffffffffffffffffffffffffffffffffffffffff160217905550505050565b60005b6003548110156119055760006004600083815260200190815260200160002060006101000a81548173ffffffffffffffffffffffffffffffffffffffff021916908373ffffffffffffffffffffffffffffffffffffffff16021790555080806118fd906129e3565b915050611895565b50565b60005b600b80549050811015611a3157600060086000600b848154811061193257611931612b18565b5b9060005260206000200160009054906101000a900473ffffffffffffffffffffffffffffffffffffffff1673ffffffffffffffffffffffffffffffffffffffff1673ffffffffffffffffffffffffffffffffffffffff16815260200190815260200160002081905550600060096000600b84815481106119b5576119b4612b18565b5b9060005260206000200160009054906101000a900473ffffffffffffffffffffffffffffffffffffffff1673ffffffffffffffffffffffffffffffffffffffff1673ffffffffffffffffffffffffffffffffffffffff168152602001908152602001600020819055508080611a29906129e3565b91505061190b565b50565b60006064611a4061049a565b600a611a4c9190612860565b611a56919061282f565b9050600e60009054906101000a900473ffffffffffffffffffffffffffffffffffffffff1673ffffffffffffffffffffffffffffffffffffffff1663e1f21c6730600c60009054906101000a900473ffffffffffffffffffffffffffffffffffffffff16846040518463ffffffff1660e01b8152600401611ad993929190612564565b600060405180830381600087803b158015611af357600080fd5b505af1158015611b07573d6000803e3d6000fd5b50505050600e60009054906101000a900473ffffffffffffffffffffffffffffffffffffffff1673ffffffffffffffffffffffffffffffffffffffff1663a9059cbb600c60009054906101000a900473ffffffffffffffffffffffffffffffffffffffff16836040518363ffffffff1660e01b8152600401611b8a92919061259b565b600060405180830381600087803b158015611ba457600080fd5b505af1158015611bb8573d6000803e3d6000fd5b5050505050565b6000803390508042604051602001611bd8929190612470565b6040516020818303038152906040528051906020012060001c91505090565b6000600260008154611c08906129e3565b91905081905550600073ffffffffffffffffffffffffffffffffffffffff168273ffffffffffffffffffffffffffffffffffffffff1614158015611c4f5750600060025414155b611c5857600080fd5b6001600560008473ffffffffffffffffffffffffffffffffffffffff1673ffffffffffffffffffffffffffffffffffffffff1681526020019081526020016000205410611ca457600080fd5b600254600560008473ffffffffffffffffffffffffffffffffffffffff1673ffffffffffffffffffffffffffffffffffffffff1681526020019081526020016000206000828254611cf591906127d9565b925050819055508160046000600254815260200190815260200160002060006101000a81548173ffffffffffffffffffffffffffffffffffffffff021916908373ffffffffffffffffffffffffffffffffffffffff160217905550600160036000828254611d6391906127d9565b925050819055506002549050919050565b6060604051806080016040528060518152602001612d7060519139905090565b60606000821415611ddc576040518060400160405280600181526020017f30000000000000000000000000000000000000000000000000000000000000008152509050611ef0565b600082905060005b60008214611e0e578080611df7906129e3565b915050600a82611e07919061282f565b9150611de4565b60008167ffffffffffffffff811115611e2a57611e29612b47565b5b6040519080825280601f01601f191660200182016040528015611e5c5781602001600182028036833780820191505090505b5090505b60008514611ee957600182611e7591906128ba565b9150600a85611e849190612a5a565b6030611e9091906127d9565b60f81b818381518110611ea657611ea5612b18565b5b60200101907effffffffffffffffffffffffffffffffffffffffffffffffffffffffffffff1916908160001a905350600a85611ee2919061282f565b9450611e60565b8093505050505b919050565b828054828255906000526020600020908101928215611f6e579160200282015b82811115611f6d5782518260006101000a81548173ffffffffffffffffffffffffffffffffffffffff021916908373ffffffffffffffffffffffffffffffffffffffff16021790555091602001919060010190611f15565b5b509050611f7b9190611f7f565b5090565b5b80821115611f98576000816000905550600101611f80565b5090565b600081359050611fab81612d2a565b92915050565b600081359050611fc081612d41565b92915050565b600081359050611fd581612d58565b92915050565b600081519050611fea81612d58565b92915050565b60006020828403121561200657612005612b76565b5b600061201484828501611f9c565b91505092915050565b6000806040838503121561203457612033612b76565b5b600061204285828601611f9c565b925050602061205385828601611f9c565b9150509250929050565b60008060006060848603121561207657612075612b76565b5b600061208486828701611f9c565b935050602061209586828701611f9c565b92505060406120a686828701611fb1565b9150509250925092565b6000806000606084860312156120c9576120c8612b76565b5b60006120d786828701611f9c565b93505060206120e886828701611f9c565b92505060406120f986828701611fc6565b9150509250925092565b6000806040838503121561211a57612119612b76565b5b600061212885828601611f9c565b925050602061213985828601611fc6565b9150509250929050565b60006020828403121561215957612158612b76565b5b600061216784828501611fc6565b91505092915050565b60006020828403121561218657612185612b76565b5b600061219484828501611fdb565b91505092915050565b60006121a983836121dc565b60208301905092915050565b60006121c183836121eb565b60208301905092915050565b6121d681612948565b82525050565b6121e581612900565b82525050565b6121f4816128ee565b82525050565b612203816128ee565b82525050565b61221a612215826128ee565b612a2c565b82525050565b600061222b82612760565b612235818561279b565b935061224083612740565b8060005b8381101561227157815161225888826121b5565b975061226383612781565b925050600181019050612244565b5085935050505092915050565b60006122898261276b565b61229381856127ac565b935061229e83612750565b8060005b838110156122cf5781516122b6888261219d565b97506122c18361278e565b9250506001810190506122a2565b5085935050505092915050565b6122e581612912565b82525050565b60006122f682612776565b61230081856127bd565b935061231081856020860161297e565b61231981612b7b565b840191505092915050565b600061232f82612776565b61233981856127ce565b935061234981856020860161297e565b80840191505092915050565b60006123626030836127bd565b915061236d82612b99565b604082019050919050565b6000612385601f836127bd565b915061239082612be8565b602082019050919050565b60006123a8601a836127bd565b91506123b382612c11565b602082019050919050565b60006123cb6022836127bd565b91506123d682612c3a565b604082019050919050565b60006123ee6019836127bd565b91506123f982612c89565b602082019050919050565b60006124116029836127bd565b915061241c82612cb2565b604082019050919050565b60006124346014836127bd565b915061243f82612d01565b602082019050919050565b6124538161293e565b82525050565b61246a6124658261293e565b612a50565b82525050565b600061247c8285612209565b60148201915061248c8284612459565b6020820191508190509392505050565b60006124a88285612324565b91506124b48284612324565b91508190509392505050565b60006020820190506124d560008301846121fa565b92915050565b60006040820190506124f060008301856121cd565b6124fd602083018461244a565b9392505050565b600060408201905061251960008301856121fa565b61252660208301846121fa565b9392505050565b600060608201905061254260008301866121fa565b61254f60208301856121cd565b61255c604083018461244a565b949350505050565b600060608201905061257960008301866121fa565b61258660208301856121fa565b612593604083018461244a565b949350505050565b60006040820190506125b060008301856121fa565b6125bd602083018461244a565b9392505050565b600060208201905081810360008301526125de8184612220565b905092915050565b60006020820190508181036000830152612600818461227e565b905092915050565b600060208201905061261d60008301846122dc565b92915050565b6000602082019050818103600083015261263d81846122eb565b905092915050565b6000602082019050818103600083015261265e81612355565b9050919050565b6000602082019050818103600083015261267e81612378565b9050919050565b6000602082019050818103600083015261269e8161239b565b9050919050565b600060208201905081810360008301526126be816123be565b9050919050565b600060208201905081810360008301526126de816123e1565b9050919050565b600060208201905081810360008301526126fe81612404565b9050919050565b6000602082019050818103600083015261271e81612427565b9050919050565b600060208201905061273a600083018461244a565b92915050565b6000819050602082019050919050565b6000819050602082019050919050565b600081519050919050565b600081519050919050565b600081519050919050565b6000602082019050919050565b6000602082019050919050565b600082825260208201905092915050565b600082825260208201905092915050565b600082825260208201905092915050565b600081905092915050565b60006127e48261293e565b91506127ef8361293e565b9250827fffffffffffffffffffffffffffffffffffffffffffffffffffffffffffffffff0382111561282457612823612a8b565b5b828201905092915050565b600061283a8261293e565b91506128458361293e565b92508261285557612854612aba565b5b828204905092915050565b600061286b8261293e565b91506128768361293e565b9250817fffffffffffffffffffffffffffffffffffffffffffffffffffffffffffffffff04831182151516156128af576128ae612a8b565b5b828202905092915050565b60006128c58261293e565b91506128d08361293e565b9250828210156128e3576128e2612a8b565b5b828203905092915050565b60006128f98261291e565b9050919050565b600061290b8261291e565b9050919050565b60008115159050919050565b600073ffffffffffffffffffffffffffffffffffffffff82169050919050565b6000819050919050565b60006129538261295a565b9050919050565b60006129658261296c565b9050919050565b60006129778261291e565b9050919050565b60005b8381101561299c578082015181840152602081019050612981565b838111156129ab576000848401525b50505050565b600060028204905060018216806129c957607f821691505b602082108114156129dd576129dc612ae9565b5b50919050565b60006129ee8261293e565b91507fffffffffffffffffffffffffffffffffffffffffffffffffffffffffffffffff821415612a2157612a20612a8b565b5b600182019050919050565b6000612a3782612a3e565b9050919050565b6000612a4982612b8c565b9050919050565b6000819050919050565b6000612a658261293e565b9150612a708361293e565b925082612a8057612a7f612aba565b5b828206905092915050565b7f4e487b7100000000000000000000000000000000000000000000000000000000600052601160045260246000fd5b7f4e487b7100000000000000000000000000000000000000000000000000000000600052601260045260246000fd5b7f4e487b7100000000000000000000000000000000000000000000000000000000600052602260045260246000fd5b7f4e487b7100000000000000000000000000000000000000000000000000000000600052603260045260246000fd5b7f4e487b7100000000000000000000000000000000000000000000000000000000600052604160045260246000fd5b600080fd5b6000601f19601f8301169050919050565b60008160601b9050919050565b7f617070726f76652063616c6c6572206973206e6f74206f776e6572206e6f722060008201527f617070726f76656420666f7220616c6c00000000000000000000000000000000602082015250565b7f55524920717565727920666f72206e6f6e6578697374656e7420746f6b656e00600082015250565b7f5468697320746f6b656e20646f6e742068617665206f776e6572000000000000600082015250565b7f62616c616e636520717565727920666f7220746865207a65726f20616464726560008201527f7373000000000000000000000000000000000000000000000000000000000000602082015250565b7f617070726f76616c20746f2063757272656e74206f776e657200000000000000600082015250565b7f7472616e736665722063616c6c6572206973206e6f74206f776e6572206e6f7260008201527f20617070726f7665640000000000000000000000000000000000000000000000602082015250565b7f546f6b656e20616c6c6f77616e636520213d2031000000000000000000000000600082015250565b612d33816128ee565b8114612d3e57600080fd5b50565b612d4a81612912565b8114612d5557600080fd5b50565b612d618161293e565b8114612d6c57600080fd5b5056fe68747470733a2f2f676174657761792e70696e6174612e636c6f75642f697066732f516d6542796b716441366632534d794474356e6e6b58686159725150764e55366f6a4d397a5372383176655246652fa26469706673582212205738d547644fbd544b90c2c64e5c1d72173402b635058fe1d41b25ee476f23b564736f6c63430008070033",
  "linkReferences": {},
  "deployedLinkReferences": {}
}